{
  "_format": "hh-sol-artifact-1",
  "contractName": "Marketplace",
  "sourceName": "contracts/Marketplace.sol",
  "abi": [
    {
      "inputs": [
        {
          "internalType": "uint256",
          "name": "_feePercent",
          "type": "uint256"
        }
      ],
      "stateMutability": "nonpayable",
      "type": "constructor"
    },
    {
      "anonymous": false,
      "inputs": [
        {
          "indexed": false,
          "internalType": "uint256",
          "name": "itemId",
          "type": "uint256"
        },
        {
          "indexed": true,
          "internalType": "address",
          "name": "nft",
          "type": "address"
        },
        {
          "indexed": false,
          "internalType": "uint256",
          "name": "tokenId",
          "type": "uint256"
        },
        {
          "indexed": false,
          "internalType": "uint256",
          "name": "price",
          "type": "uint256"
        },
        {
          "indexed": true,
          "internalType": "address",
          "name": "seller",
          "type": "address"
        },
        {
          "indexed": true,
          "internalType": "address",
          "name": "buyer",
          "type": "address"
        }
      ],
      "name": "Bought",
      "type": "event"
    },
    {
      "anonymous": false,
      "inputs": [
        {
          "indexed": false,
          "internalType": "uint256",
          "name": "itemId",
          "type": "uint256"
        },
        {
          "indexed": true,
          "internalType": "address",
          "name": "nft",
          "type": "address"
        },
        {
          "indexed": false,
          "internalType": "uint256",
          "name": "tokenId",
          "type": "uint256"
        },
        {
          "indexed": false,
          "internalType": "uint256",
          "name": "price",
          "type": "uint256"
        },
        {
          "indexed": true,
          "internalType": "address",
          "name": "seller",
          "type": "address"
        }
      ],
      "name": "Offered",
      "type": "event"
    },
    {
      "inputs": [],
      "name": "feeAccount",
      "outputs": [
        {
          "internalType": "address payable",
          "name": "",
          "type": "address"
        }
      ],
      "stateMutability": "view",
      "type": "function"
    },
    {
      "inputs": [],
      "name": "feePercent",
      "outputs": [
        {
          "internalType": "uint256",
          "name": "",
          "type": "uint256"
        }
      ],
      "stateMutability": "view",
      "type": "function"
    },
    {
      "inputs": [],
      "name": "fetchMarketItems",
      "outputs": [
        {
          "components": [
            {
              "internalType": "uint256",
              "name": "itemId",
              "type": "uint256"
            },
            {
              "internalType": "contract IERC721",
              "name": "nft",
              "type": "address"
            },
            {
              "internalType": "uint256",
              "name": "tokenId",
              "type": "uint256"
            },
            {
              "internalType": "uint256",
              "name": "price",
              "type": "uint256"
            },
            {
              "internalType": "address payable",
              "name": "seller",
              "type": "address"
            },
            {
              "internalType": "bool",
              "name": "sold",
              "type": "bool"
            }
          ],
          "internalType": "struct Marketplace.Item[]",
          "name": "",
          "type": "tuple[]"
        }
      ],
      "stateMutability": "view",
      "type": "function"
    },
    {
      "inputs": [
        {
          "internalType": "uint256",
          "name": "_itemId",
          "type": "uint256"
        }
      ],
      "name": "getTotalPrice",
      "outputs": [
        {
          "internalType": "uint256",
          "name": "",
          "type": "uint256"
        }
      ],
      "stateMutability": "view",
      "type": "function"
    },
    {
      "inputs": [],
      "name": "itemCount",
      "outputs": [
        {
          "internalType": "uint256",
          "name": "",
          "type": "uint256"
        }
      ],
      "stateMutability": "view",
      "type": "function"
    },
    {
      "inputs": [
        {
          "internalType": "uint256",
          "name": "",
          "type": "uint256"
        }
      ],
      "name": "items",
      "outputs": [
        {
          "internalType": "uint256",
          "name": "itemId",
          "type": "uint256"
        },
        {
          "internalType": "contract IERC721",
          "name": "nft",
          "type": "address"
        },
        {
          "internalType": "uint256",
          "name": "tokenId",
          "type": "uint256"
        },
        {
          "internalType": "uint256",
          "name": "price",
          "type": "uint256"
        },
        {
          "internalType": "address payable",
          "name": "seller",
          "type": "address"
        },
        {
          "internalType": "bool",
          "name": "sold",
          "type": "bool"
        }
      ],
      "stateMutability": "view",
      "type": "function"
    },
    {
      "inputs": [
        {
          "internalType": "contract IERC721",
          "name": "_nft",
          "type": "address"
        },
        {
          "internalType": "uint256",
          "name": "_tokenId",
          "type": "uint256"
        },
        {
          "internalType": "uint256",
          "name": "_price",
          "type": "uint256"
        }
      ],
      "name": "makeItem",
      "outputs": [],
      "stateMutability": "nonpayable",
      "type": "function"
    },
    {
      "inputs": [
        {
          "internalType": "uint256",
          "name": "_itemId",
          "type": "uint256"
        }
      ],
      "name": "purchaseItem",
      "outputs": [],
      "stateMutability": "payable",
      "type": "function"
    },
    {
      "inputs": [
        {
          "internalType": "uint256",
          "name": "_itemId",
          "type": "uint256"
        }
      ],
      "name": "removeItem",
      "outputs": [],
      "stateMutability": "payable",
      "type": "function"
    }
  ],
  "bytecode": "0x60c06040523480156200001157600080fd5b506040516200193a3803806200193a83398181016040528101906200003791906200009c565b60016000819055503373ffffffffffffffffffffffffffffffffffffffff1660808173ffffffffffffffffffffffffffffffffffffffff1660601b815250508060a0818152505050620000ec565b6000815190506200009681620000d2565b92915050565b600060208284031215620000af57600080fd5b6000620000bf8482850162000085565b91505092915050565b6000819050919050565b620000dd81620000c8565b8114620000e957600080fd5b50565b60805160601c60a05161181762000123600039600081816106f601526107a701526000818161044901526109cd01526118176000f3fe6080604052600436106100865760003560e01c80637fd6f15c116100595780637fd6f15c14610128578063bfb231d214610153578063ca7dd37514610195578063d38ea5bf146101d2578063fa00afc7146101ee57610086565b80630f08efe01461008b57806365e17c9d146100b65780636bfb0d01146100e1578063713291711461010c575b600080fd5b34801561009757600080fd5b506100a0610217565b6040516100ad9190611246565b60405180910390f35b3480156100c257600080fd5b506100cb610447565b6040516100d891906111f4565b60405180910390f35b3480156100ed57600080fd5b506100f661046b565b6040516101039190611328565b60405180910390f35b61012660048036038101906101219190610f81565b610471565b005b34801561013457600080fd5b5061013d6106f4565b60405161014a9190611328565b60405180910390f35b34801561015f57600080fd5b5061017a60048036038101906101759190610f81565b610718565b60405161018c96959493929190611343565b60405180910390f35b3480156101a157600080fd5b506101bc60048036038101906101b79190610f81565b6107a1565b6040516101c99190611328565b60405180910390f35b6101ec60048036038101906101e79190610f81565b610804565b005b3480156101fa57600080fd5b5061021560048036038101906102109190610f32565b610bd2565b005b606060008060015467ffffffffffffffff81111561025e577f4e487b7100000000000000000000000000000000000000000000000000000000600052604160045260246000fd5b60405190808252806020026020018201604052801561029757816020015b610284610ea4565b81526020019060019003908161027c5790505b50905060005b60015481101561043e576000600260006001846102ba9190611425565b81526020019081526020016000206000015490506000600260008381526020019081526020016000209050806040518060c0016040529081600082015481526020016001820160009054906101000a900473ffffffffffffffffffffffffffffffffffffffff1673ffffffffffffffffffffffffffffffffffffffff1673ffffffffffffffffffffffffffffffffffffffff16815260200160028201548152602001600382015481526020016004820160009054906101000a900473ffffffffffffffffffffffffffffffffffffffff1673ffffffffffffffffffffffffffffffffffffffff1673ffffffffffffffffffffffffffffffffffffffff1681526020016004820160149054906101000a900460ff16151515158152505084868151811061040f577f4e487b7100000000000000000000000000000000000000000000000000000000600052603260045260246000fd5b60200260200101819052506001856104279190611425565b945050508080610436906115ca565b91505061029d565b50809250505090565b7f000000000000000000000000000000000000000000000000000000000000000081565b60015481565b60006002600083815260200190815260200160002090508060040160149054906101000a900460ff16156104da576040517f08c379a00000000000000000000000000000000000000000000000000000000081526004016104d190611268565b60405180910390fd5b3373ffffffffffffffffffffffffffffffffffffffff168160040160009054906101000a900473ffffffffffffffffffffffffffffffffffffffff1673ffffffffffffffffffffffffffffffffffffffff161461056c576040517f08c379a0000000000000000000000000000000000000000000000000000000008152600401610563906112e8565b60405180910390fd5b60018160040160146101000a81548160ff0219169083151502179055508060010160009054906101000a900473ffffffffffffffffffffffffffffffffffffffff1673ffffffffffffffffffffffffffffffffffffffff166323b872dd303384600201546040518463ffffffff1660e01b81526004016105ee9392919061120f565b600060405180830381600087803b15801561060857600080fd5b505af115801561061c573d6000803e3d6000fd5b505050503373ffffffffffffffffffffffffffffffffffffffff168160040160009054906101000a900473ffffffffffffffffffffffffffffffffffffffff1673ffffffffffffffffffffffffffffffffffffffff168260010160009054906101000a900473ffffffffffffffffffffffffffffffffffffffff1673ffffffffffffffffffffffffffffffffffffffff167f8b4c9c8a607d67b321582dd8461041b1dc2ceeca70c8b7f37f8e02095cf2e76d85856002015486600301546040516106e8939291906113a4565b60405180910390a45050565b7f000000000000000000000000000000000000000000000000000000000000000081565b60026020528060005260406000206000915090508060000154908060010160009054906101000a900473ffffffffffffffffffffffffffffffffffffffff16908060020154908060030154908060040160009054906101000a900473ffffffffffffffffffffffffffffffffffffffff16908060040160149054906101000a900460ff16905086565b600060647f000000000000000000000000000000000000000000000000000000000000000060646107d29190611425565b60026000858152602001908152602001600020600301546107f391906114ac565b6107fd919061147b565b9050919050565b6002600054141561084a576040517f08c379a000000000000000000000000000000000000000000000000000000000815260040161084190611308565b60405180910390fd5b6002600081905550600061085d826107a1565b9050600060026000848152602001908152602001600020905060008311801561088857506001548311155b6108c7576040517f08c379a00000000000000000000000000000000000000000000000000000000081526004016108be906112c8565b60405180910390fd5b8134101561090a576040517f08c379a0000000000000000000000000000000000000000000000000000000008152600401610901906112a8565b60405180910390fd5b8060040160149054906101000a900460ff161561095c576040517f08c379a000000000000000000000000000000000000000000000000000000000815260040161095390611268565b60405180910390fd5b8060040160009054906101000a900473ffffffffffffffffffffffffffffffffffffffff1673ffffffffffffffffffffffffffffffffffffffff166108fc82600301549081150290604051600060405180830381858888f193505050501580156109ca573d6000803e3d6000fd5b507f000000000000000000000000000000000000000000000000000000000000000073ffffffffffffffffffffffffffffffffffffffff166108fc826003015484610a159190611506565b9081150290604051600060405180830381858888f19350505050158015610a40573d6000803e3d6000fd5b5060018160040160146101000a81548160ff0219169083151502179055508060010160009054906101000a900473ffffffffffffffffffffffffffffffffffffffff1673ffffffffffffffffffffffffffffffffffffffff166323b872dd303384600201546040518463ffffffff1660e01b8152600401610ac39392919061120f565b600060405180830381600087803b158015610add57600080fd5b505af1158015610af1573d6000803e3d6000fd5b505050503373ffffffffffffffffffffffffffffffffffffffff168160040160009054906101000a900473ffffffffffffffffffffffffffffffffffffffff1673ffffffffffffffffffffffffffffffffffffffff168260010160009054906101000a900473ffffffffffffffffffffffffffffffffffffffff1673ffffffffffffffffffffffffffffffffffffffff167f8b4c9c8a607d67b321582dd8461041b1dc2ceeca70c8b7f37f8e02095cf2e76d8685600201548660030154604051610bbd939291906113a4565b60405180910390a45050600160008190555050565b60026000541415610c18576040517f08c379a0000000000000000000000000000000000000000000000000000000008152600401610c0f90611308565b60405180910390fd5b600260008190555060008111610c63576040517f08c379a0000000000000000000000000000000000000000000000000000000008152600401610c5a90611288565b60405180910390fd5b60016000815480929190610c76906115ca565b91905055508273ffffffffffffffffffffffffffffffffffffffff166323b872dd3330856040518463ffffffff1660e01b8152600401610cb89392919061120f565b600060405180830381600087803b158015610cd257600080fd5b505af1158015610ce6573d6000803e3d6000fd5b505050506040518060c0016040528060015481526020018473ffffffffffffffffffffffffffffffffffffffff1681526020018381526020018281526020013373ffffffffffffffffffffffffffffffffffffffff168152602001600015158152506002600060015481526020019081526020016000206000820151816000015560208201518160010160006101000a81548173ffffffffffffffffffffffffffffffffffffffff021916908373ffffffffffffffffffffffffffffffffffffffff160217905550604082015181600201556060820151816003015560808201518160040160006101000a81548173ffffffffffffffffffffffffffffffffffffffff021916908373ffffffffffffffffffffffffffffffffffffffff16021790555060a08201518160040160146101000a81548160ff0219169083151502179055509050503373ffffffffffffffffffffffffffffffffffffffff168373ffffffffffffffffffffffffffffffffffffffff167f655a0cf9c8db81512be9a76dc1c5ae5380b8816ce6ad659cd61b715e2999d59a6001548585604051610e8f939291906113a4565b60405180910390a36001600081905550505050565b6040518060c0016040528060008152602001600073ffffffffffffffffffffffffffffffffffffffff1681526020016000815260200160008152602001600073ffffffffffffffffffffffffffffffffffffffff1681526020016000151581525090565b600081359050610f17816117b3565b92915050565b600081359050610f2c816117ca565b92915050565b600080600060608486031215610f4757600080fd5b6000610f5586828701610f08565b9350506020610f6686828701610f1d565b9250506040610f7786828701610f1d565b9150509250925092565b600060208284031215610f9357600080fd5b6000610fa184828501610f1d565b91505092915050565b6000610fb6838361115b565b60c08301905092915050565b610fcb8161154c565b82525050565b610fda8161154c565b82525050565b610fe98161153a565b82525050565b6000610ffa826113eb565b6110048185611403565b935061100f836113db565b8060005b838110156110405781516110278882610faa565b9750611032836113f6565b925050600181019050611013565b5085935050505092915050565b6110568161155e565b82525050565b6110658161155e565b82525050565b611074816115a6565b82525050565b611083816115a6565b82525050565b6000611096601183611414565b91506110a182611671565b602082019050919050565b60006110b9601f83611414565b91506110c48261169a565b602082019050919050565b60006110dc603383611414565b91506110e7826116c3565b604082019050919050565b60006110ff601283611414565b915061110a82611712565b602082019050919050565b6000611122602a83611414565b915061112d8261173b565b604082019050919050565b6000611145601f83611414565b91506111508261178a565b602082019050919050565b60c08201600082015161117160008501826111d6565b506020820151611184602085018261106b565b50604082015161119760408501826111d6565b5060608201516111aa60608501826111d6565b5060808201516111bd6080850182610fc2565b5060a08201516111d060a085018261104d565b50505050565b6111df8161159c565b82525050565b6111ee8161159c565b82525050565b60006020820190506112096000830184610fd1565b92915050565b60006060820190506112246000830186610fe0565b6112316020830185610fe0565b61123e60408301846111e5565b949350505050565b600060208201905081810360008301526112608184610fef565b905092915050565b6000602082019050818103600083015261128181611089565b9050919050565b600060208201905081810360008301526112a1816110ac565b9050919050565b600060208201905081810360008301526112c1816110cf565b9050919050565b600060208201905081810360008301526112e1816110f2565b9050919050565b6000602082019050818103600083015261130181611115565b9050919050565b6000602082019050818103600083015261132181611138565b9050919050565b600060208201905061133d60008301846111e5565b92915050565b600060c08201905061135860008301896111e5565b611365602083018861107a565b61137260408301876111e5565b61137f60608301866111e5565b61138c6080830185610fd1565b61139960a083018461105c565b979650505050505050565b60006060820190506113b960008301866111e5565b6113c660208301856111e5565b6113d360408301846111e5565b949350505050565b6000819050602082019050919050565b600081519050919050565b6000602082019050919050565b600082825260208201905092915050565b600082825260208201905092915050565b60006114308261159c565b915061143b8361159c565b9250827fffffffffffffffffffffffffffffffffffffffffffffffffffffffffffffffff038211156114705761146f611613565b5b828201905092915050565b60006114868261159c565b91506114918361159c565b9250826114a1576114a0611642565b5b828204905092915050565b60006114b78261159c565b91506114c28361159c565b9250817fffffffffffffffffffffffffffffffffffffffffffffffffffffffffffffffff04831182151516156114fb576114fa611613565b5b828202905092915050565b60006115118261159c565b915061151c8361159c565b92508282101561152f5761152e611613565b5b828203905092915050565b60006115458261157c565b9050919050565b60006115578261157c565b9050919050565b60008115159050919050565b60006115758261153a565b9050919050565b600073ffffffffffffffffffffffffffffffffffffffff82169050919050565b6000819050919050565b60006115b1826115b8565b9050919050565b60006115c38261157c565b9050919050565b60006115d58261159c565b91507fffffffffffffffffffffffffffffffffffffffffffffffffffffffffffffffff82141561160857611607611613565b5b600182019050919050565b7f4e487b7100000000000000000000000000000000000000000000000000000000600052601160045260246000fd5b7f4e487b7100000000000000000000000000000000000000000000000000000000600052601260045260246000fd5b7f6974656d20616c726561647920736f6c64000000000000000000000000000000600082015250565b7f5072696365206d7573742062652067726561746572207468616e207a65726f00600082015250565b7f6e6f7420656e6f75676820657468657220746f20636f766572206974656d207060008201527f7269636520616e64206d61726b65742066656500000000000000000000000000602082015250565b7f6974656d20646f65736e27742065786973740000000000000000000000000000600082015250565b7f4f6e6c79206974656d206f776e65722063616e20706572666f726d207468697360008201527f206f7065726174696f6e00000000000000000000000000000000000000000000602082015250565b7f5265656e7472616e637947756172643a207265656e7472616e742063616c6c00600082015250565b6117bc8161156a565b81146117c757600080fd5b50565b6117d38161159c565b81146117de57600080fd5b5056fea2646970667358221220576933dd6440ea1fa1ebad897347b7a472f8103993fdd52aefb69c06aada358164736f6c63430008040033",
  "linkReferences": {},
  "deployedLinkReferences": {}
}