{
  "_format": "hh-sol-artifact-1",
  "contractName": "Marketplace",
  "sourceName": "contracts/Marketplace.sol",
  "abi": [
    {
      "inputs": [
        {
          "internalType": "uint256",
          "name": "_feePercent",
          "type": "uint256"
        }
      ],
      "stateMutability": "nonpayable",
      "type": "constructor"
    },
    {
      "anonymous": false,
      "inputs": [
        {
          "indexed": false,
          "internalType": "uint256",
          "name": "itemId",
          "type": "uint256"
        },
        {
          "indexed": true,
          "internalType": "address",
          "name": "nft",
          "type": "address"
        },
        {
          "indexed": false,
          "internalType": "uint256",
          "name": "tokenId",
          "type": "uint256"
        },
        {
          "indexed": false,
          "internalType": "uint256",
          "name": "price",
          "type": "uint256"
        },
        {
          "indexed": true,
          "internalType": "address",
          "name": "seller",
          "type": "address"
        },
        {
          "indexed": true,
          "internalType": "address",
          "name": "buyer",
          "type": "address"
        }
      ],
      "name": "Bought",
      "type": "event"
    },
    {
      "anonymous": false,
      "inputs": [
        {
          "indexed": false,
          "internalType": "uint256",
          "name": "itemId",
          "type": "uint256"
        },
        {
          "indexed": true,
          "internalType": "address",
          "name": "nft",
          "type": "address"
        },
        {
          "indexed": false,
          "internalType": "uint256",
          "name": "tokenId",
          "type": "uint256"
        },
        {
          "indexed": false,
          "internalType": "uint256",
          "name": "price",
          "type": "uint256"
        },
        {
          "indexed": true,
          "internalType": "address",
          "name": "seller",
          "type": "address"
        }
      ],
      "name": "Offered",
      "type": "event"
    },
    {
      "inputs": [],
      "name": "feeAccount",
      "outputs": [
        {
          "internalType": "address payable",
          "name": "",
          "type": "address"
        }
      ],
      "stateMutability": "view",
      "type": "function"
    },
    {
      "inputs": [],
      "name": "feePercent",
      "outputs": [
        {
          "internalType": "uint256",
          "name": "",
          "type": "uint256"
        }
      ],
      "stateMutability": "view",
      "type": "function"
    },
    {
      "inputs": [],
      "name": "fetchMarketItems",
      "outputs": [
        {
          "components": [
            {
              "internalType": "uint256",
              "name": "itemId",
              "type": "uint256"
            },
            {
              "internalType": "contract IERC721",
              "name": "nft",
              "type": "address"
            },
            {
              "internalType": "uint256",
              "name": "tokenId",
              "type": "uint256"
            },
            {
              "internalType": "uint256",
              "name": "price",
              "type": "uint256"
            },
            {
              "internalType": "address payable",
              "name": "seller",
              "type": "address"
            },
            {
              "internalType": "bool",
              "name": "sold",
              "type": "bool"
            }
          ],
          "internalType": "struct Marketplace.Item[]",
          "name": "",
          "type": "tuple[]"
        }
      ],
      "stateMutability": "view",
      "type": "function"
    },
    {
      "inputs": [],
      "name": "itemCount",
      "outputs": [
        {
          "internalType": "uint256",
          "name": "",
          "type": "uint256"
        }
      ],
      "stateMutability": "view",
      "type": "function"
    },
    {
      "inputs": [
        {
          "internalType": "uint256",
          "name": "",
          "type": "uint256"
        }
      ],
      "name": "items",
      "outputs": [
        {
          "internalType": "uint256",
          "name": "itemId",
          "type": "uint256"
        },
        {
          "internalType": "contract IERC721",
          "name": "nft",
          "type": "address"
        },
        {
          "internalType": "uint256",
          "name": "tokenId",
          "type": "uint256"
        },
        {
          "internalType": "uint256",
          "name": "price",
          "type": "uint256"
        },
        {
          "internalType": "address payable",
          "name": "seller",
          "type": "address"
        },
        {
          "internalType": "bool",
          "name": "sold",
          "type": "bool"
        }
      ],
      "stateMutability": "view",
      "type": "function"
    },
    {
      "inputs": [
        {
          "internalType": "contract ERC721",
          "name": "_nft",
          "type": "address"
        },
        {
          "internalType": "uint256",
          "name": "_tokenId",
          "type": "uint256"
        },
        {
          "internalType": "uint256",
          "name": "_price",
          "type": "uint256"
        }
      ],
      "name": "makeItem",
      "outputs": [],
      "stateMutability": "nonpayable",
      "type": "function"
    },
    {
      "inputs": [
        {
          "internalType": "uint256",
          "name": "_itemId",
          "type": "uint256"
        }
      ],
      "name": "purchaseItem",
      "outputs": [],
      "stateMutability": "payable",
      "type": "function"
    },
    {
      "inputs": [
        {
          "internalType": "uint256",
          "name": "tokenId",
          "type": "uint256"
        },
        {
          "internalType": "uint256",
          "name": "price",
          "type": "uint256"
        }
      ],
      "name": "relistItem",
      "outputs": [],
      "stateMutability": "payable",
      "type": "function"
    }
  ],
  "bytecode": "0x60c060405267016345785d8a00006002553480156200001d57600080fd5b50604051620018b1380380620018b18339818101604052810190620000439190620000a8565b60016000819055503373ffffffffffffffffffffffffffffffffffffffff1660808173ffffffffffffffffffffffffffffffffffffffff1660601b815250508060a0818152505050620000f8565b600081519050620000a281620000de565b92915050565b600060208284031215620000bb57600080fd5b6000620000cb8482850162000091565b91505092915050565b6000819050919050565b620000e981620000d4565b8114620000f557600080fd5b50565b60805160601c60a0516117826200012f600039600081816105620152610661015260008181610401015261082701526117826000f3fe60806040526004361061007b5760003560e01c80637fd6f15c1161004e5780637fd6f15c1461011d578063bfb231d214610148578063d38ea5bf1461018a578063fa00afc7146101a65761007b565b80630f08efe01461008057806365e17c9d146100ab5780636bfb0d01146100d657806375ad1b1214610101575b600080fd5b34801561008c57600080fd5b506100956101cf565b6040516100a29190611142565b60405180910390f35b3480156100b757600080fd5b506100c06103ff565b6040516100cd91906110f0565b60405180910390f35b3480156100e257600080fd5b506100eb610423565b6040516100f89190611244565b60405180910390f35b61011b60048036038101906101169190610e47565b610429565b005b34801561012957600080fd5b50610132610560565b60405161013f9190611244565b60405180910390f35b34801561015457600080fd5b5061016f600480360381019061016a9190610e1e565b610584565b6040516101819695949392919061125f565b60405180910390f35b6101a4600480360381019061019f9190610e1e565b61060d565b005b3480156101b257600080fd5b506101cd60048036038101906101c89190610dcf565b610a6f565b005b606060008060015467ffffffffffffffff811115610216577f4e487b7100000000000000000000000000000000000000000000000000000000600052604160045260246000fd5b60405190808252806020026020018201604052801561024f57816020015b61023c610d41565b8152602001906001900390816102345790505b50905060005b6001548110156103f6576000600360006001846102729190611341565b81526020019081526020016000206000015490506000600360008381526020019081526020016000209050806040518060c0016040529081600082015481526020016001820160009054906101000a900473ffffffffffffffffffffffffffffffffffffffff1673ffffffffffffffffffffffffffffffffffffffff1673ffffffffffffffffffffffffffffffffffffffff16815260200160028201548152602001600382015481526020016004820160009054906101000a900473ffffffffffffffffffffffffffffffffffffffff1673ffffffffffffffffffffffffffffffffffffffff1673ffffffffffffffffffffffffffffffffffffffff1681526020016004820160149054906101000a900460ff1615151515815250508486815181106103c7577f4e487b7100000000000000000000000000000000000000000000000000000000600052603260045260246000fd5b60200260200101819052506001856103df9190611341565b9450505080806103ee906114e6565b915050610255565b50809250505090565b7f000000000000000000000000000000000000000000000000000000000000000081565b60015481565b3373ffffffffffffffffffffffffffffffffffffffff166003600084815260200190815260200160002060040160009054906101000a900473ffffffffffffffffffffffffffffffffffffffff1673ffffffffffffffffffffffffffffffffffffffff16146104cd576040517f08c379a00000000000000000000000000000000000000000000000000000000081526004016104c4906111e4565b60405180910390fd5b600254341015610512576040517f08c379a000000000000000000000000000000000000000000000000000000000815260040161050990611204565b60405180910390fd5b60006003600084815260200190815260200160002060040160146101000a81548160ff0219169083151502179055508060036000848152602001908152602001600020600301819055505050565b7f000000000000000000000000000000000000000000000000000000000000000081565b60036020528060005260406000206000915090508060000154908060010160009054906101000a900473ffffffffffffffffffffffffffffffffffffffff16908060020154908060030154908060040160009054906101000a900473ffffffffffffffffffffffffffffffffffffffff16908060040160149054906101000a900460ff16905086565b60026000541415610653576040517f08c379a000000000000000000000000000000000000000000000000000000000815260040161064a90611224565b60405180910390fd5b6002600081905550600060647f0000000000000000000000000000000000000000000000000000000000000000606461068c9190611341565b60036000858152602001908152602001600020600301546106ad91906113c8565b6106b79190611397565b905060006003600084815260200190815260200160002090506000831180156106e257506001548311155b610721576040517f08c379a0000000000000000000000000000000000000000000000000000000008152600401610718906111c4565b60405180910390fd5b81341015610764576040517f08c379a000000000000000000000000000000000000000000000000000000000815260040161075b906111a4565b60405180910390fd5b8060040160149054906101000a900460ff16156107b6576040517f08c379a00000000000000000000000000000000000000000000000000000000081526004016107ad90611164565b60405180910390fd5b8060040160009054906101000a900473ffffffffffffffffffffffffffffffffffffffff1673ffffffffffffffffffffffffffffffffffffffff166108fc82600301549081150290604051600060405180830381858888f19350505050158015610824573d6000803e3d6000fd5b507f000000000000000000000000000000000000000000000000000000000000000073ffffffffffffffffffffffffffffffffffffffff166108fc82600301548461086f9190611422565b9081150290604051600060405180830381858888f1935050505015801561089a573d6000803e3d6000fd5b5060018160040160146101000a81548160ff0219169083151502179055508060010160009054906101000a900473ffffffffffffffffffffffffffffffffffffffff1673ffffffffffffffffffffffffffffffffffffffff166323b872dd303384600201546040518463ffffffff1660e01b815260040161091d9392919061110b565b600060405180830381600087803b15801561093757600080fd5b505af115801561094b573d6000803e3d6000fd5b505050503373ffffffffffffffffffffffffffffffffffffffff168160040160009054906101000a900473ffffffffffffffffffffffffffffffffffffffff1673ffffffffffffffffffffffffffffffffffffffff168260010160009054906101000a900473ffffffffffffffffffffffffffffffffffffffff1673ffffffffffffffffffffffffffffffffffffffff167f8b4c9c8a607d67b321582dd8461041b1dc2ceeca70c8b7f37f8e02095cf2e76d8685600201548660030154604051610a17939291906112c0565b60405180910390a4338160040160006101000a81548173ffffffffffffffffffffffffffffffffffffffff021916908373ffffffffffffffffffffffffffffffffffffffff1602179055505050600160008190555050565b60026000541415610ab5576040517f08c379a0000000000000000000000000000000000000000000000000000000008152600401610aac90611224565b60405180910390fd5b600260008190555060008111610b00576040517f08c379a0000000000000000000000000000000000000000000000000000000008152600401610af790611184565b60405180910390fd5b60016000815480929190610b13906114e6565b91905055508273ffffffffffffffffffffffffffffffffffffffff166323b872dd3330856040518463ffffffff1660e01b8152600401610b559392919061110b565b600060405180830381600087803b158015610b6f57600080fd5b505af1158015610b83573d6000803e3d6000fd5b505050506040518060c0016040528060015481526020018473ffffffffffffffffffffffffffffffffffffffff1681526020018381526020018281526020013373ffffffffffffffffffffffffffffffffffffffff168152602001600015158152506003600060015481526020019081526020016000206000820151816000015560208201518160010160006101000a81548173ffffffffffffffffffffffffffffffffffffffff021916908373ffffffffffffffffffffffffffffffffffffffff160217905550604082015181600201556060820151816003015560808201518160040160006101000a81548173ffffffffffffffffffffffffffffffffffffffff021916908373ffffffffffffffffffffffffffffffffffffffff16021790555060a08201518160040160146101000a81548160ff0219169083151502179055509050503373ffffffffffffffffffffffffffffffffffffffff168373ffffffffffffffffffffffffffffffffffffffff167f655a0cf9c8db81512be9a76dc1c5ae5380b8816ce6ad659cd61b715e2999d59a6001548585604051610d2c939291906112c0565b60405180910390a36001600081905550505050565b6040518060c0016040528060008152602001600073ffffffffffffffffffffffffffffffffffffffff1681526020016000815260200160008152602001600073ffffffffffffffffffffffffffffffffffffffff1681526020016000151581525090565b600081359050610db48161171e565b92915050565b600081359050610dc981611735565b92915050565b600080600060608486031215610de457600080fd5b6000610df286828701610da5565b9350506020610e0386828701610dba565b9250506040610e1486828701610dba565b9150509250925092565b600060208284031215610e3057600080fd5b6000610e3e84828501610dba565b91505092915050565b60008060408385031215610e5a57600080fd5b6000610e6885828601610dba565b9250506020610e7985828601610dba565b9150509250929050565b6000610e8f8383611057565b60c08301905092915050565b610ea481611468565b82525050565b610eb381611468565b82525050565b610ec281611456565b82525050565b6000610ed382611307565b610edd818561131f565b9350610ee8836112f7565b8060005b83811015610f19578151610f008882610e83565b9750610f0b83611312565b925050600181019050610eec565b5085935050505092915050565b610f2f8161147a565b82525050565b610f3e8161147a565b82525050565b610f4d816114c2565b82525050565b610f5c816114c2565b82525050565b6000610f6f601183611330565b9150610f7a8261158d565b602082019050919050565b6000610f92601f83611330565b9150610f9d826115b6565b602082019050919050565b6000610fb5603383611330565b9150610fc0826115df565b604082019050919050565b6000610fd8601283611330565b9150610fe38261162e565b602082019050919050565b6000610ffb602a83611330565b915061100682611657565b604082019050919050565b600061101e602483611330565b9150611029826116a6565b604082019050919050565b6000611041601f83611330565b915061104c826116f5565b602082019050919050565b60c08201600082015161106d60008501826110d2565b5060208201516110806020850182610f44565b50604082015161109360408501826110d2565b5060608201516110a660608501826110d2565b5060808201516110b96080850182610e9b565b5060a08201516110cc60a0850182610f26565b50505050565b6110db816114b8565b82525050565b6110ea816114b8565b82525050565b60006020820190506111056000830184610eaa565b92915050565b60006060820190506111206000830186610eb9565b61112d6020830185610eb9565b61113a60408301846110e1565b949350505050565b6000602082019050818103600083015261115c8184610ec8565b905092915050565b6000602082019050818103600083015261117d81610f62565b9050919050565b6000602082019050818103600083015261119d81610f85565b9050919050565b600060208201905081810360008301526111bd81610fa8565b9050919050565b600060208201905081810360008301526111dd81610fcb565b9050919050565b600060208201905081810360008301526111fd81610fee565b9050919050565b6000602082019050818103600083015261121d81611011565b9050919050565b6000602082019050818103600083015261123d81611034565b9050919050565b600060208201905061125960008301846110e1565b92915050565b600060c08201905061127460008301896110e1565b6112816020830188610f53565b61128e60408301876110e1565b61129b60608301866110e1565b6112a86080830185610eaa565b6112b560a0830184610f35565b979650505050505050565b60006060820190506112d560008301866110e1565b6112e260208301856110e1565b6112ef60408301846110e1565b949350505050565b6000819050602082019050919050565b600081519050919050565b6000602082019050919050565b600082825260208201905092915050565b600082825260208201905092915050565b600061134c826114b8565b9150611357836114b8565b9250827fffffffffffffffffffffffffffffffffffffffffffffffffffffffffffffffff0382111561138c5761138b61152f565b5b828201905092915050565b60006113a2826114b8565b91506113ad836114b8565b9250826113bd576113bc61155e565b5b828204905092915050565b60006113d3826114b8565b91506113de836114b8565b9250817fffffffffffffffffffffffffffffffffffffffffffffffffffffffffffffffff04831182151516156114175761141661152f565b5b828202905092915050565b600061142d826114b8565b9150611438836114b8565b92508282101561144b5761144a61152f565b5b828203905092915050565b600061146182611498565b9050919050565b600061147382611498565b9050919050565b60008115159050919050565b600061149182611456565b9050919050565b600073ffffffffffffffffffffffffffffffffffffffff82169050919050565b6000819050919050565b60006114cd826114d4565b9050919050565b60006114df82611498565b9050919050565b60006114f1826114b8565b91507fffffffffffffffffffffffffffffffffffffffffffffffffffffffffffffffff8214156115245761152361152f565b5b600182019050919050565b7f4e487b7100000000000000000000000000000000000000000000000000000000600052601160045260246000fd5b7f4e487b7100000000000000000000000000000000000000000000000000000000600052601260045260246000fd5b7f6974656d20616c726561647920736f6c64000000000000000000000000000000600082015250565b7f5072696365206d7573742062652067726561746572207468616e207a65726f00600082015250565b7f6e6f7420656e6f75676820657468657220746f20636f766572206974656d207060008201527f7269636520616e64206d61726b65742066656500000000000000000000000000602082015250565b7f6974656d20646f65736e27742065786973740000000000000000000000000000600082015250565b7f4f6e6c79206974656d206f776e65722063616e20706572666f726d207468697360008201527f206f7065726174696f6e00000000000000000000000000000000000000000000602082015250565b7f5072696365206d75737420626520657175616c20746f206c697374696e67207060008201527f7269636500000000000000000000000000000000000000000000000000000000602082015250565b7f5265656e7472616e637947756172643a207265656e7472616e742063616c6c00600082015250565b61172781611486565b811461173257600080fd5b50565b61173e816114b8565b811461174957600080fd5b5056fea2646970667358221220880da5b774e2c573177c1be19378787e1de0c26f66b875f1aa6ffe89cd12d56964736f6c63430008040033",
  "linkReferences": {},
  "deployedLinkReferences": {}
}