{
  "_format": "hh-sol-artifact-1",
  "contractName": "Marketplace",
  "sourceName": "contracts/Marketplace.sol",
  "abi": [
    {
      "inputs": [
        {
          "internalType": "uint256",
          "name": "_feePercent",
          "type": "uint256"
        }
      ],
      "stateMutability": "nonpayable",
      "type": "constructor"
    },
    {
      "anonymous": false,
      "inputs": [
        {
          "indexed": false,
          "internalType": "uint256",
          "name": "itemId",
          "type": "uint256"
        },
        {
          "indexed": true,
          "internalType": "address",
          "name": "nft",
          "type": "address"
        },
        {
          "indexed": false,
          "internalType": "uint256",
          "name": "tokenId",
          "type": "uint256"
        },
        {
          "indexed": false,
          "internalType": "uint256",
          "name": "price",
          "type": "uint256"
        },
        {
          "indexed": true,
          "internalType": "address",
          "name": "seller",
          "type": "address"
        },
        {
          "indexed": true,
          "internalType": "address",
          "name": "buyer",
          "type": "address"
        }
      ],
      "name": "Bought",
      "type": "event"
    },
    {
      "anonymous": false,
      "inputs": [
        {
          "indexed": false,
          "internalType": "uint256",
          "name": "itemId",
          "type": "uint256"
        },
        {
          "indexed": true,
          "internalType": "address",
          "name": "nft",
          "type": "address"
        },
        {
          "indexed": false,
          "internalType": "uint256",
          "name": "tokenId",
          "type": "uint256"
        },
        {
          "indexed": false,
          "internalType": "uint256",
          "name": "price",
          "type": "uint256"
        },
        {
          "indexed": true,
          "internalType": "address",
          "name": "seller",
          "type": "address"
        }
      ],
      "name": "Offered",
      "type": "event"
    },
    {
      "inputs": [],
      "name": "feeAccount",
      "outputs": [
        {
          "internalType": "address payable",
          "name": "",
          "type": "address"
        }
      ],
      "stateMutability": "view",
      "type": "function"
    },
    {
      "inputs": [],
      "name": "feePercent",
      "outputs": [
        {
          "internalType": "uint256",
          "name": "",
          "type": "uint256"
        }
      ],
      "stateMutability": "view",
      "type": "function"
    },
    {
      "inputs": [],
      "name": "fetchMarketItems",
      "outputs": [
        {
          "components": [
            {
              "internalType": "uint256",
              "name": "itemId",
              "type": "uint256"
            },
            {
              "internalType": "contract IERC721",
              "name": "nft",
              "type": "address"
            },
            {
              "internalType": "uint256",
              "name": "tokenId",
              "type": "uint256"
            },
            {
              "internalType": "uint256",
              "name": "price",
              "type": "uint256"
            },
            {
              "internalType": "address payable",
              "name": "seller",
              "type": "address"
            },
            {
              "internalType": "bool",
              "name": "sold",
              "type": "bool"
            }
          ],
          "internalType": "struct Marketplace.Item[]",
          "name": "",
          "type": "tuple[]"
        }
      ],
      "stateMutability": "view",
      "type": "function"
    },
    {
      "inputs": [
        {
          "internalType": "uint256",
          "name": "_itemId",
          "type": "uint256"
        }
      ],
      "name": "getTotalPrice",
      "outputs": [
        {
          "internalType": "uint256",
          "name": "",
          "type": "uint256"
        }
      ],
      "stateMutability": "view",
      "type": "function"
    },
    {
      "inputs": [],
      "name": "itemCount",
      "outputs": [
        {
          "internalType": "uint256",
          "name": "",
          "type": "uint256"
        }
      ],
      "stateMutability": "view",
      "type": "function"
    },
    {
      "inputs": [
        {
          "internalType": "uint256",
          "name": "",
          "type": "uint256"
        }
      ],
      "name": "items",
      "outputs": [
        {
          "internalType": "uint256",
          "name": "itemId",
          "type": "uint256"
        },
        {
          "internalType": "contract IERC721",
          "name": "nft",
          "type": "address"
        },
        {
          "internalType": "uint256",
          "name": "tokenId",
          "type": "uint256"
        },
        {
          "internalType": "uint256",
          "name": "price",
          "type": "uint256"
        },
        {
          "internalType": "address payable",
          "name": "seller",
          "type": "address"
        },
        {
          "internalType": "bool",
          "name": "sold",
          "type": "bool"
        }
      ],
      "stateMutability": "view",
      "type": "function"
    },
    {
      "inputs": [
        {
          "internalType": "contract ERC721",
          "name": "_nft",
          "type": "address"
        },
        {
          "internalType": "uint256",
          "name": "_tokenId",
          "type": "uint256"
        },
        {
          "internalType": "uint256",
          "name": "_price",
          "type": "uint256"
        }
      ],
      "name": "makeItem",
      "outputs": [],
      "stateMutability": "nonpayable",
      "type": "function"
    },
    {
      "inputs": [
        {
          "internalType": "uint256",
          "name": "_itemId",
          "type": "uint256"
        }
      ],
      "name": "purchaseItem",
      "outputs": [],
      "stateMutability": "payable",
      "type": "function"
    },
    {
      "inputs": [
        {
          "internalType": "uint256",
          "name": "_itemId",
          "type": "uint256"
        }
      ],
      "name": "removeItem",
      "outputs": [],
      "stateMutability": "nonpayable",
      "type": "function"
    }
  ],
  "bytecode": "0x60c06040523480156200001157600080fd5b5060405162001a2738038062001a2783398181016040528101906200003791906200009c565b60016000819055503373ffffffffffffffffffffffffffffffffffffffff1660808173ffffffffffffffffffffffffffffffffffffffff1660601b815250508060a0818152505050620000ec565b6000815190506200009681620000d2565b92915050565b600060208284031215620000af57600080fd5b6000620000bf8482850162000085565b91505092915050565b6000819050919050565b620000dd81620000c8565b8114620000e957600080fd5b50565b60805160601c60a05161190462000123600039600081816107e301526108940152600081816104560152610aba01526119046000f3fe6080604052600436106100865760003560e01c80637fd6f15c116100595780637fd6f15c14610135578063bfb231d214610160578063ca7dd375146101a2578063d38ea5bf146101df578063fa00afc7146101fb57610086565b80630f08efe01461008b57806365e17c9d146100b65780636bfb0d01146100e1578063713291711461010c575b600080fd5b34801561009757600080fd5b506100a0610224565b6040516100ad9190611333565b60405180910390f35b3480156100c257600080fd5b506100cb610454565b6040516100d891906112e1565b60405180910390f35b3480156100ed57600080fd5b506100f6610478565b6040516101039190611415565b60405180910390f35b34801561011857600080fd5b50610133600480360381019061012e919061106e565b61047e565b005b34801561014157600080fd5b5061014a6107e1565b6040516101579190611415565b60405180910390f35b34801561016c57600080fd5b506101876004803603810190610182919061106e565b610805565b60405161019996959493929190611430565b60405180910390f35b3480156101ae57600080fd5b506101c960048036038101906101c4919061106e565b61088e565b6040516101d69190611415565b60405180910390f35b6101f960048036038101906101f4919061106e565b6108f1565b005b34801561020757600080fd5b50610222600480360381019061021d919061101f565b610cbf565b005b606060008060015467ffffffffffffffff81111561026b577f4e487b7100000000000000000000000000000000000000000000000000000000600052604160045260246000fd5b6040519080825280602002602001820160405280156102a457816020015b610291610f91565b8152602001906001900390816102895790505b50905060005b60015481101561044b576000600260006001846102c79190611512565b81526020019081526020016000206000015490506000600260008381526020019081526020016000209050806040518060c0016040529081600082015481526020016001820160009054906101000a900473ffffffffffffffffffffffffffffffffffffffff1673ffffffffffffffffffffffffffffffffffffffff1673ffffffffffffffffffffffffffffffffffffffff16815260200160028201548152602001600382015481526020016004820160009054906101000a900473ffffffffffffffffffffffffffffffffffffffff1673ffffffffffffffffffffffffffffffffffffffff1673ffffffffffffffffffffffffffffffffffffffff1681526020016004820160149054906101000a900460ff16151515158152505084868151811061041c577f4e487b7100000000000000000000000000000000000000000000000000000000600052603260045260246000fd5b60200260200101819052506001856104349190611512565b945050508080610443906116b7565b9150506102aa565b50809250505090565b7f000000000000000000000000000000000000000000000000000000000000000081565b60015481565b600260005414156104c4576040517f08c379a00000000000000000000000000000000000000000000000000000000081526004016104bb906113f5565b60405180910390fd5b60026000819055506002600082815260200190815260200160002060040160149054906101000a900460ff1615610530576040517f08c379a000000000000000000000000000000000000000000000000000000000815260040161052790611355565b60405180910390fd5b3373ffffffffffffffffffffffffffffffffffffffff166002600083815260200190815260200160002060040160009054906101000a900473ffffffffffffffffffffffffffffffffffffffff1673ffffffffffffffffffffffffffffffffffffffff16146105d4576040517f08c379a00000000000000000000000000000000000000000000000000000000081526004016105cb906113d5565b60405180910390fd5b60016002600083815260200190815260200160002060040160146101000a81548160ff0219169083151502179055506002600082815260200190815260200160002060010160009054906101000a900473ffffffffffffffffffffffffffffffffffffffff1673ffffffffffffffffffffffffffffffffffffffff166323b872dd303360026000868152602001908152602001600020600201546040518463ffffffff1660e01b815260040161068c939291906112fc565b600060405180830381600087803b1580156106a657600080fd5b505af11580156106ba573d6000803e3d6000fd5b505050503373ffffffffffffffffffffffffffffffffffffffff166002600083815260200190815260200160002060040160009054906101000a900473ffffffffffffffffffffffffffffffffffffffff1673ffffffffffffffffffffffffffffffffffffffff166002600084815260200190815260200160002060010160009054906101000a900473ffffffffffffffffffffffffffffffffffffffff1673ffffffffffffffffffffffffffffffffffffffff167f8b4c9c8a607d67b321582dd8461041b1dc2ceeca70c8b7f37f8e02095cf2e76d84600260008781526020019081526020016000206002015460026000888152602001908152602001600020600301546040516107ce93929190611491565b60405180910390a4600160008190555050565b7f000000000000000000000000000000000000000000000000000000000000000081565b60026020528060005260406000206000915090508060000154908060010160009054906101000a900473ffffffffffffffffffffffffffffffffffffffff16908060020154908060030154908060040160009054906101000a900473ffffffffffffffffffffffffffffffffffffffff16908060040160149054906101000a900460ff16905086565b600060647f000000000000000000000000000000000000000000000000000000000000000060646108bf9190611512565b60026000858152602001908152602001600020600301546108e09190611599565b6108ea9190611568565b9050919050565b60026000541415610937576040517f08c379a000000000000000000000000000000000000000000000000000000000815260040161092e906113f5565b60405180910390fd5b6002600081905550600061094a8261088e565b9050600060026000848152602001908152602001600020905060008311801561097557506001548311155b6109b4576040517f08c379a00000000000000000000000000000000000000000000000000000000081526004016109ab906113b5565b60405180910390fd5b813410156109f7576040517f08c379a00000000000000000000000000000000000000000000000000000000081526004016109ee90611395565b60405180910390fd5b8060040160149054906101000a900460ff1615610a49576040517f08c379a0000000000000000000000000000000000000000000000000000000008152600401610a4090611355565b60405180910390fd5b8060040160009054906101000a900473ffffffffffffffffffffffffffffffffffffffff1673ffffffffffffffffffffffffffffffffffffffff166108fc82600301549081150290604051600060405180830381858888f19350505050158015610ab7573d6000803e3d6000fd5b507f000000000000000000000000000000000000000000000000000000000000000073ffffffffffffffffffffffffffffffffffffffff166108fc826003015484610b0291906115f3565b9081150290604051600060405180830381858888f19350505050158015610b2d573d6000803e3d6000fd5b5060018160040160146101000a81548160ff0219169083151502179055508060010160009054906101000a900473ffffffffffffffffffffffffffffffffffffffff1673ffffffffffffffffffffffffffffffffffffffff166323b872dd303384600201546040518463ffffffff1660e01b8152600401610bb0939291906112fc565b600060405180830381600087803b158015610bca57600080fd5b505af1158015610bde573d6000803e3d6000fd5b505050503373ffffffffffffffffffffffffffffffffffffffff168160040160009054906101000a900473ffffffffffffffffffffffffffffffffffffffff1673ffffffffffffffffffffffffffffffffffffffff168260010160009054906101000a900473ffffffffffffffffffffffffffffffffffffffff1673ffffffffffffffffffffffffffffffffffffffff167f8b4c9c8a607d67b321582dd8461041b1dc2ceeca70c8b7f37f8e02095cf2e76d8685600201548660030154604051610caa93929190611491565b60405180910390a45050600160008190555050565b60026000541415610d05576040517f08c379a0000000000000000000000000000000000000000000000000000000008152600401610cfc906113f5565b60405180910390fd5b600260008190555060008111610d50576040517f08c379a0000000000000000000000000000000000000000000000000000000008152600401610d4790611375565b60405180910390fd5b60016000815480929190610d63906116b7565b91905055508273ffffffffffffffffffffffffffffffffffffffff166323b872dd3330856040518463ffffffff1660e01b8152600401610da5939291906112fc565b600060405180830381600087803b158015610dbf57600080fd5b505af1158015610dd3573d6000803e3d6000fd5b505050506040518060c0016040528060015481526020018473ffffffffffffffffffffffffffffffffffffffff1681526020018381526020018281526020013373ffffffffffffffffffffffffffffffffffffffff168152602001600015158152506002600060015481526020019081526020016000206000820151816000015560208201518160010160006101000a81548173ffffffffffffffffffffffffffffffffffffffff021916908373ffffffffffffffffffffffffffffffffffffffff160217905550604082015181600201556060820151816003015560808201518160040160006101000a81548173ffffffffffffffffffffffffffffffffffffffff021916908373ffffffffffffffffffffffffffffffffffffffff16021790555060a08201518160040160146101000a81548160ff0219169083151502179055509050503373ffffffffffffffffffffffffffffffffffffffff168373ffffffffffffffffffffffffffffffffffffffff167f655a0cf9c8db81512be9a76dc1c5ae5380b8816ce6ad659cd61b715e2999d59a6001548585604051610f7c93929190611491565b60405180910390a36001600081905550505050565b6040518060c0016040528060008152602001600073ffffffffffffffffffffffffffffffffffffffff1681526020016000815260200160008152602001600073ffffffffffffffffffffffffffffffffffffffff1681526020016000151581525090565b600081359050611004816118a0565b92915050565b600081359050611019816118b7565b92915050565b60008060006060848603121561103457600080fd5b600061104286828701610ff5565b93505060206110538682870161100a565b92505060406110648682870161100a565b9150509250925092565b60006020828403121561108057600080fd5b600061108e8482850161100a565b91505092915050565b60006110a38383611248565b60c08301905092915050565b6110b881611639565b82525050565b6110c781611639565b82525050565b6110d681611627565b82525050565b60006110e7826114d8565b6110f181856114f0565b93506110fc836114c8565b8060005b8381101561112d5781516111148882611097565b975061111f836114e3565b925050600181019050611100565b5085935050505092915050565b6111438161164b565b82525050565b6111528161164b565b82525050565b61116181611693565b82525050565b61117081611693565b82525050565b6000611183601183611501565b915061118e8261175e565b602082019050919050565b60006111a6601f83611501565b91506111b182611787565b602082019050919050565b60006111c9603383611501565b91506111d4826117b0565b604082019050919050565b60006111ec601283611501565b91506111f7826117ff565b602082019050919050565b600061120f602a83611501565b915061121a82611828565b604082019050919050565b6000611232601f83611501565b915061123d82611877565b602082019050919050565b60c08201600082015161125e60008501826112c3565b5060208201516112716020850182611158565b50604082015161128460408501826112c3565b50606082015161129760608501826112c3565b5060808201516112aa60808501826110af565b5060a08201516112bd60a085018261113a565b50505050565b6112cc81611689565b82525050565b6112db81611689565b82525050565b60006020820190506112f660008301846110be565b92915050565b600060608201905061131160008301866110cd565b61131e60208301856110cd565b61132b60408301846112d2565b949350505050565b6000602082019050818103600083015261134d81846110dc565b905092915050565b6000602082019050818103600083015261136e81611176565b9050919050565b6000602082019050818103600083015261138e81611199565b9050919050565b600060208201905081810360008301526113ae816111bc565b9050919050565b600060208201905081810360008301526113ce816111df565b9050919050565b600060208201905081810360008301526113ee81611202565b9050919050565b6000602082019050818103600083015261140e81611225565b9050919050565b600060208201905061142a60008301846112d2565b92915050565b600060c08201905061144560008301896112d2565b6114526020830188611167565b61145f60408301876112d2565b61146c60608301866112d2565b61147960808301856110be565b61148660a0830184611149565b979650505050505050565b60006060820190506114a660008301866112d2565b6114b360208301856112d2565b6114c060408301846112d2565b949350505050565b6000819050602082019050919050565b600081519050919050565b6000602082019050919050565b600082825260208201905092915050565b600082825260208201905092915050565b600061151d82611689565b915061152883611689565b9250827fffffffffffffffffffffffffffffffffffffffffffffffffffffffffffffffff0382111561155d5761155c611700565b5b828201905092915050565b600061157382611689565b915061157e83611689565b92508261158e5761158d61172f565b5b828204905092915050565b60006115a482611689565b91506115af83611689565b9250817fffffffffffffffffffffffffffffffffffffffffffffffffffffffffffffffff04831182151516156115e8576115e7611700565b5b828202905092915050565b60006115fe82611689565b915061160983611689565b92508282101561161c5761161b611700565b5b828203905092915050565b600061163282611669565b9050919050565b600061164482611669565b9050919050565b60008115159050919050565b600061166282611627565b9050919050565b600073ffffffffffffffffffffffffffffffffffffffff82169050919050565b6000819050919050565b600061169e826116a5565b9050919050565b60006116b082611669565b9050919050565b60006116c282611689565b91507fffffffffffffffffffffffffffffffffffffffffffffffffffffffffffffffff8214156116f5576116f4611700565b5b600182019050919050565b7f4e487b7100000000000000000000000000000000000000000000000000000000600052601160045260246000fd5b7f4e487b7100000000000000000000000000000000000000000000000000000000600052601260045260246000fd5b7f6974656d20616c726561647920736f6c64000000000000000000000000000000600082015250565b7f5072696365206d7573742062652067726561746572207468616e207a65726f00600082015250565b7f6e6f7420656e6f75676820657468657220746f20636f766572206974656d207060008201527f7269636520616e64206d61726b65742066656500000000000000000000000000602082015250565b7f6974656d20646f65736e27742065786973740000000000000000000000000000600082015250565b7f4f6e6c79206974656d206f776e65722063616e20706572666f726d207468697360008201527f206f7065726174696f6e00000000000000000000000000000000000000000000602082015250565b7f5265656e7472616e637947756172643a207265656e7472616e742063616c6c00600082015250565b6118a981611657565b81146118b457600080fd5b50565b6118c081611689565b81146118cb57600080fd5b5056fea2646970667358221220b0e275d5176eece1a6086eb22bcf66fbf4c09b0fb8dab7554f74f67d8205bc3b64736f6c63430008040033",
  "linkReferences": {},
  "deployedLinkReferences": {}
}