{
  "_format": "hh-sol-artifact-1",
  "contractName": "Marketplace",
  "sourceName": "contracts/Marketplace.sol",
  "abi": [
    {
      "inputs": [
        {
          "internalType": "uint256",
          "name": "_feePercent",
          "type": "uint256"
        }
      ],
      "stateMutability": "nonpayable",
      "type": "constructor"
    },
    {
      "anonymous": false,
      "inputs": [
        {
          "indexed": false,
          "internalType": "uint256",
          "name": "itemId",
          "type": "uint256"
        },
        {
          "indexed": true,
          "internalType": "address",
          "name": "nft",
          "type": "address"
        },
        {
          "indexed": false,
          "internalType": "uint256",
          "name": "tokenId",
          "type": "uint256"
        },
        {
          "indexed": false,
          "internalType": "uint256",
          "name": "price",
          "type": "uint256"
        },
        {
          "indexed": true,
          "internalType": "address",
          "name": "seller",
          "type": "address"
        },
        {
          "indexed": true,
          "internalType": "address",
          "name": "buyer",
          "type": "address"
        }
      ],
      "name": "Bought",
      "type": "event"
    },
    {
      "anonymous": false,
      "inputs": [
        {
          "indexed": false,
          "internalType": "uint256",
          "name": "itemId",
          "type": "uint256"
        },
        {
          "indexed": true,
          "internalType": "address",
          "name": "nft",
          "type": "address"
        },
        {
          "indexed": false,
          "internalType": "uint256",
          "name": "tokenId",
          "type": "uint256"
        },
        {
          "indexed": false,
          "internalType": "uint256",
          "name": "price",
          "type": "uint256"
        },
        {
          "indexed": true,
          "internalType": "address",
          "name": "seller",
          "type": "address"
        }
      ],
      "name": "Offered",
      "type": "event"
    },
    {
      "inputs": [],
      "name": "feeAccount",
      "outputs": [
        {
          "internalType": "address payable",
          "name": "",
          "type": "address"
        }
      ],
      "stateMutability": "view",
      "type": "function"
    },
    {
      "inputs": [],
      "name": "feePercent",
      "outputs": [
        {
          "internalType": "uint256",
          "name": "",
          "type": "uint256"
        }
      ],
      "stateMutability": "view",
      "type": "function"
    },
    {
      "inputs": [],
      "name": "fetchMarketItems",
      "outputs": [
        {
          "components": [
            {
              "internalType": "uint256",
              "name": "itemId",
              "type": "uint256"
            },
            {
              "internalType": "contract IERC721",
              "name": "nft",
              "type": "address"
            },
            {
              "internalType": "uint256",
              "name": "tokenId",
              "type": "uint256"
            },
            {
              "internalType": "uint256",
              "name": "price",
              "type": "uint256"
            },
            {
              "internalType": "address payable",
              "name": "seller",
              "type": "address"
            },
            {
              "internalType": "bool",
              "name": "sold",
              "type": "bool"
            }
          ],
          "internalType": "struct Marketplace.Item[]",
          "name": "",
          "type": "tuple[]"
        }
      ],
      "stateMutability": "view",
      "type": "function"
    },
    {
      "inputs": [],
      "name": "itemCount",
      "outputs": [
        {
          "internalType": "uint256",
          "name": "",
          "type": "uint256"
        }
      ],
      "stateMutability": "view",
      "type": "function"
    },
    {
      "inputs": [
        {
          "internalType": "uint256",
          "name": "",
          "type": "uint256"
        }
      ],
      "name": "items",
      "outputs": [
        {
          "internalType": "uint256",
          "name": "itemId",
          "type": "uint256"
        },
        {
          "internalType": "contract IERC721",
          "name": "nft",
          "type": "address"
        },
        {
          "internalType": "uint256",
          "name": "tokenId",
          "type": "uint256"
        },
        {
          "internalType": "uint256",
          "name": "price",
          "type": "uint256"
        },
        {
          "internalType": "address payable",
          "name": "seller",
          "type": "address"
        },
        {
          "internalType": "bool",
          "name": "sold",
          "type": "bool"
        }
      ],
      "stateMutability": "view",
      "type": "function"
    },
    {
      "inputs": [
        {
          "internalType": "contract ERC721",
          "name": "_nft",
          "type": "address"
        },
        {
          "internalType": "uint256",
          "name": "_tokenId",
          "type": "uint256"
        },
        {
          "internalType": "uint256",
          "name": "_price",
          "type": "uint256"
        }
      ],
      "name": "makeItem",
      "outputs": [],
      "stateMutability": "nonpayable",
      "type": "function"
    },
    {
      "inputs": [
        {
          "internalType": "uint256",
          "name": "_itemId",
          "type": "uint256"
        }
      ],
      "name": "purchaseItem",
      "outputs": [],
      "stateMutability": "payable",
      "type": "function"
    },
    {
      "inputs": [
        {
          "internalType": "uint256",
          "name": "tokenId",
          "type": "uint256"
        },
        {
          "internalType": "uint256",
          "name": "price",
          "type": "uint256"
        }
      ],
      "name": "relistItem",
      "outputs": [],
      "stateMutability": "nonpayable",
      "type": "function"
    }
  ],
  "bytecode": "0x60c06040523480156200001157600080fd5b50604051620017db380380620017db83398181016040528101906200003791906200009c565b60016000819055503373ffffffffffffffffffffffffffffffffffffffff1660808173ffffffffffffffffffffffffffffffffffffffff1660601b815250508060a0818152505050620000ec565b6000815190506200009681620000d2565b92915050565b600060208284031215620000af57600080fd5b6000620000bf8482850162000085565b91505092915050565b6000819050919050565b620000dd81620000c8565b8114620000e957600080fd5b50565b60805160601c60a0516116b8620001236000396000818161052a015261062901526000818161040e01526107ef01526116b86000f3fe60806040526004361061007b5760003560e01c80637fd6f15c1161004e5780637fd6f15c1461012a578063bfb231d214610155578063d38ea5bf14610197578063fa00afc7146101b35761007b565b80630f08efe01461008057806365e17c9d146100ab5780636bfb0d01146100d657806375ad1b1214610101575b600080fd5b34801561008c57600080fd5b506100956101dc565b6040516100a291906110e7565b60405180910390f35b3480156100b757600080fd5b506100c061040c565b6040516100cd9190611095565b60405180910390f35b3480156100e257600080fd5b506100eb610430565b6040516100f891906111c9565b60405180910390f35b34801561010d57600080fd5b5061012860048036038101906101239190610e0f565b610436565b005b34801561013657600080fd5b5061013f610528565b60405161014c91906111c9565b60405180910390f35b34801561016157600080fd5b5061017c60048036038101906101779190610de6565b61054c565b60405161018e969594939291906111e4565b60405180910390f35b6101b160048036038101906101ac9190610de6565b6105d5565b005b3480156101bf57600080fd5b506101da60048036038101906101d59190610d97565b610a37565b005b606060008060015467ffffffffffffffff811115610223577f4e487b7100000000000000000000000000000000000000000000000000000000600052604160045260246000fd5b60405190808252806020026020018201604052801561025c57816020015b610249610d09565b8152602001906001900390816102415790505b50905060005b6001548110156104035760006002600060018461027f91906112c6565b81526020019081526020016000206000015490506000600260008381526020019081526020016000209050806040518060c0016040529081600082015481526020016001820160009054906101000a900473ffffffffffffffffffffffffffffffffffffffff1673ffffffffffffffffffffffffffffffffffffffff1673ffffffffffffffffffffffffffffffffffffffff16815260200160028201548152602001600382015481526020016004820160009054906101000a900473ffffffffffffffffffffffffffffffffffffffff1673ffffffffffffffffffffffffffffffffffffffff1673ffffffffffffffffffffffffffffffffffffffff1681526020016004820160149054906101000a900460ff1615151515815250508486815181106103d4577f4e487b7100000000000000000000000000000000000000000000000000000000600052603260045260246000fd5b60200260200101819052506001856103ec91906112c6565b9450505080806103fb9061146b565b915050610262565b50809250505090565b7f000000000000000000000000000000000000000000000000000000000000000081565b60015481565b3373ffffffffffffffffffffffffffffffffffffffff166002600084815260200190815260200160002060040160009054906101000a900473ffffffffffffffffffffffffffffffffffffffff1673ffffffffffffffffffffffffffffffffffffffff16146104da576040517f08c379a00000000000000000000000000000000000000000000000000000000081526004016104d190611189565b60405180910390fd5b60006002600084815260200190815260200160002060040160146101000a81548160ff0219169083151502179055508060026000848152602001908152602001600020600301819055505050565b7f000000000000000000000000000000000000000000000000000000000000000081565b60026020528060005260406000206000915090508060000154908060010160009054906101000a900473ffffffffffffffffffffffffffffffffffffffff16908060020154908060030154908060040160009054906101000a900473ffffffffffffffffffffffffffffffffffffffff16908060040160149054906101000a900460ff16905086565b6002600054141561061b576040517f08c379a0000000000000000000000000000000000000000000000000000000008152600401610612906111a9565b60405180910390fd5b6002600081905550600060647f0000000000000000000000000000000000000000000000000000000000000000606461065491906112c6565b6002600085815260200190815260200160002060030154610675919061134d565b61067f919061131c565b905060006002600084815260200190815260200160002090506000831180156106aa57506001548311155b6106e9576040517f08c379a00000000000000000000000000000000000000000000000000000000081526004016106e090611169565b60405180910390fd5b8134101561072c576040517f08c379a000000000000000000000000000000000000000000000000000000000815260040161072390611149565b60405180910390fd5b8060040160149054906101000a900460ff161561077e576040517f08c379a000000000000000000000000000000000000000000000000000000000815260040161077590611109565b60405180910390fd5b8060040160009054906101000a900473ffffffffffffffffffffffffffffffffffffffff1673ffffffffffffffffffffffffffffffffffffffff166108fc82600301549081150290604051600060405180830381858888f193505050501580156107ec573d6000803e3d6000fd5b507f000000000000000000000000000000000000000000000000000000000000000073ffffffffffffffffffffffffffffffffffffffff166108fc82600301548461083791906113a7565b9081150290604051600060405180830381858888f19350505050158015610862573d6000803e3d6000fd5b5060018160040160146101000a81548160ff0219169083151502179055508060010160009054906101000a900473ffffffffffffffffffffffffffffffffffffffff1673ffffffffffffffffffffffffffffffffffffffff166323b872dd303384600201546040518463ffffffff1660e01b81526004016108e5939291906110b0565b600060405180830381600087803b1580156108ff57600080fd5b505af1158015610913573d6000803e3d6000fd5b505050503373ffffffffffffffffffffffffffffffffffffffff168160040160009054906101000a900473ffffffffffffffffffffffffffffffffffffffff1673ffffffffffffffffffffffffffffffffffffffff168260010160009054906101000a900473ffffffffffffffffffffffffffffffffffffffff1673ffffffffffffffffffffffffffffffffffffffff167f8b4c9c8a607d67b321582dd8461041b1dc2ceeca70c8b7f37f8e02095cf2e76d86856002015486600301546040516109df93929190611245565b60405180910390a4338160040160006101000a81548173ffffffffffffffffffffffffffffffffffffffff021916908373ffffffffffffffffffffffffffffffffffffffff1602179055505050600160008190555050565b60026000541415610a7d576040517f08c379a0000000000000000000000000000000000000000000000000000000008152600401610a74906111a9565b60405180910390fd5b600260008190555060008111610ac8576040517f08c379a0000000000000000000000000000000000000000000000000000000008152600401610abf90611129565b60405180910390fd5b60016000815480929190610adb9061146b565b91905055508273ffffffffffffffffffffffffffffffffffffffff166323b872dd3330856040518463ffffffff1660e01b8152600401610b1d939291906110b0565b600060405180830381600087803b158015610b3757600080fd5b505af1158015610b4b573d6000803e3d6000fd5b505050506040518060c0016040528060015481526020018473ffffffffffffffffffffffffffffffffffffffff1681526020018381526020018281526020013373ffffffffffffffffffffffffffffffffffffffff168152602001600015158152506002600060015481526020019081526020016000206000820151816000015560208201518160010160006101000a81548173ffffffffffffffffffffffffffffffffffffffff021916908373ffffffffffffffffffffffffffffffffffffffff160217905550604082015181600201556060820151816003015560808201518160040160006101000a81548173ffffffffffffffffffffffffffffffffffffffff021916908373ffffffffffffffffffffffffffffffffffffffff16021790555060a08201518160040160146101000a81548160ff0219169083151502179055509050503373ffffffffffffffffffffffffffffffffffffffff168373ffffffffffffffffffffffffffffffffffffffff167f655a0cf9c8db81512be9a76dc1c5ae5380b8816ce6ad659cd61b715e2999d59a6001548585604051610cf493929190611245565b60405180910390a36001600081905550505050565b6040518060c0016040528060008152602001600073ffffffffffffffffffffffffffffffffffffffff1681526020016000815260200160008152602001600073ffffffffffffffffffffffffffffffffffffffff1681526020016000151581525090565b600081359050610d7c81611654565b92915050565b600081359050610d918161166b565b92915050565b600080600060608486031215610dac57600080fd5b6000610dba86828701610d6d565b9350506020610dcb86828701610d82565b9250506040610ddc86828701610d82565b9150509250925092565b600060208284031215610df857600080fd5b6000610e0684828501610d82565b91505092915050565b60008060408385031215610e2257600080fd5b6000610e3085828601610d82565b9250506020610e4185828601610d82565b9150509250929050565b6000610e578383610ffc565b60c08301905092915050565b610e6c816113ed565b82525050565b610e7b816113ed565b82525050565b610e8a816113db565b82525050565b6000610e9b8261128c565b610ea581856112a4565b9350610eb08361127c565b8060005b83811015610ee1578151610ec88882610e4b565b9750610ed383611297565b925050600181019050610eb4565b5085935050505092915050565b610ef7816113ff565b82525050565b610f06816113ff565b82525050565b610f1581611447565b82525050565b610f2481611447565b82525050565b6000610f376011836112b5565b9150610f4282611512565b602082019050919050565b6000610f5a601f836112b5565b9150610f658261153b565b602082019050919050565b6000610f7d6033836112b5565b9150610f8882611564565b604082019050919050565b6000610fa06012836112b5565b9150610fab826115b3565b602082019050919050565b6000610fc3602a836112b5565b9150610fce826115dc565b604082019050919050565b6000610fe6601f836112b5565b9150610ff18261162b565b602082019050919050565b60c0820160008201516110126000850182611077565b5060208201516110256020850182610f0c565b5060408201516110386040850182611077565b50606082015161104b6060850182611077565b50608082015161105e6080850182610e63565b5060a082015161107160a0850182610eee565b50505050565b6110808161143d565b82525050565b61108f8161143d565b82525050565b60006020820190506110aa6000830184610e72565b92915050565b60006060820190506110c56000830186610e81565b6110d26020830185610e81565b6110df6040830184611086565b949350505050565b600060208201905081810360008301526111018184610e90565b905092915050565b6000602082019050818103600083015261112281610f2a565b9050919050565b6000602082019050818103600083015261114281610f4d565b9050919050565b6000602082019050818103600083015261116281610f70565b9050919050565b6000602082019050818103600083015261118281610f93565b9050919050565b600060208201905081810360008301526111a281610fb6565b9050919050565b600060208201905081810360008301526111c281610fd9565b9050919050565b60006020820190506111de6000830184611086565b92915050565b600060c0820190506111f96000830189611086565b6112066020830188610f1b565b6112136040830187611086565b6112206060830186611086565b61122d6080830185610e72565b61123a60a0830184610efd565b979650505050505050565b600060608201905061125a6000830186611086565b6112676020830185611086565b6112746040830184611086565b949350505050565b6000819050602082019050919050565b600081519050919050565b6000602082019050919050565b600082825260208201905092915050565b600082825260208201905092915050565b60006112d18261143d565b91506112dc8361143d565b9250827fffffffffffffffffffffffffffffffffffffffffffffffffffffffffffffffff03821115611311576113106114b4565b5b828201905092915050565b60006113278261143d565b91506113328361143d565b925082611342576113416114e3565b5b828204905092915050565b60006113588261143d565b91506113638361143d565b9250817fffffffffffffffffffffffffffffffffffffffffffffffffffffffffffffffff048311821515161561139c5761139b6114b4565b5b828202905092915050565b60006113b28261143d565b91506113bd8361143d565b9250828210156113d0576113cf6114b4565b5b828203905092915050565b60006113e68261141d565b9050919050565b60006113f88261141d565b9050919050565b60008115159050919050565b6000611416826113db565b9050919050565b600073ffffffffffffffffffffffffffffffffffffffff82169050919050565b6000819050919050565b600061145282611459565b9050919050565b60006114648261141d565b9050919050565b60006114768261143d565b91507fffffffffffffffffffffffffffffffffffffffffffffffffffffffffffffffff8214156114a9576114a86114b4565b5b600182019050919050565b7f4e487b7100000000000000000000000000000000000000000000000000000000600052601160045260246000fd5b7f4e487b7100000000000000000000000000000000000000000000000000000000600052601260045260246000fd5b7f6974656d20616c726561647920736f6c64000000000000000000000000000000600082015250565b7f5072696365206d7573742062652067726561746572207468616e207a65726f00600082015250565b7f6e6f7420656e6f75676820657468657220746f20636f766572206974656d207060008201527f7269636520616e64206d61726b65742066656500000000000000000000000000602082015250565b7f6974656d20646f65736e27742065786973740000000000000000000000000000600082015250565b7f4f6e6c79206974656d206f776e65722063616e20706572666f726d207468697360008201527f206f7065726174696f6e00000000000000000000000000000000000000000000602082015250565b7f5265656e7472616e637947756172643a207265656e7472616e742063616c6c00600082015250565b61165d8161140b565b811461166857600080fd5b50565b6116748161143d565b811461167f57600080fd5b5056fea26469706673582212206cc77ad13c489caf955b07708f11f9cd9bbc55b8152cc95388b5f89efeebc62964736f6c63430008040033",
  "linkReferences": {},
  "deployedLinkReferences": {}
}