{
  "_format": "hh-sol-artifact-1",
  "contractName": "NFT",
  "sourceName": "contracts/MyNFT.sol",
  "abi": [
    {
      "inputs": [],
      "stateMutability": "nonpayable",
      "type": "constructor"
    },
    {
      "anonymous": false,
      "inputs": [
        {
          "indexed": true,
          "internalType": "address",
          "name": "owner",
          "type": "address"
        },
        {
          "indexed": true,
          "internalType": "address",
          "name": "approved",
          "type": "address"
        },
        {
          "indexed": true,
          "internalType": "uint256",
          "name": "tokenId",
          "type": "uint256"
        }
      ],
      "name": "Approval",
      "type": "event"
    },
    {
      "anonymous": false,
      "inputs": [
        {
          "indexed": true,
          "internalType": "address",
          "name": "owner",
          "type": "address"
        },
        {
          "indexed": true,
          "internalType": "address",
          "name": "operator",
          "type": "address"
        },
        {
          "indexed": false,
          "internalType": "bool",
          "name": "approved",
          "type": "bool"
        }
      ],
      "name": "ApprovalForAll",
      "type": "event"
    },
    {
      "anonymous": false,
      "inputs": [
        {
          "indexed": true,
          "internalType": "address",
          "name": "previousOwner",
          "type": "address"
        },
        {
          "indexed": true,
          "internalType": "address",
          "name": "newOwner",
          "type": "address"
        }
      ],
      "name": "OwnershipTransferred",
      "type": "event"
    },
    {
      "anonymous": false,
      "inputs": [
        {
          "indexed": true,
          "internalType": "address",
          "name": "from",
          "type": "address"
        },
        {
          "indexed": true,
          "internalType": "address",
          "name": "to",
          "type": "address"
        },
        {
          "indexed": true,
          "internalType": "uint256",
          "name": "tokenId",
          "type": "uint256"
        }
      ],
      "name": "Transfer",
      "type": "event"
    },
    {
      "inputs": [],
      "name": "TOTAL_SUPPLY",
      "outputs": [
        {
          "internalType": "uint256",
          "name": "",
          "type": "uint256"
        }
      ],
      "stateMutability": "view",
      "type": "function"
    },
    {
      "inputs": [
        {
          "internalType": "address",
          "name": "to",
          "type": "address"
        },
        {
          "internalType": "uint256",
          "name": "tokenId",
          "type": "uint256"
        }
      ],
      "name": "approve",
      "outputs": [],
      "stateMutability": "nonpayable",
      "type": "function"
    },
    {
      "inputs": [
        {
          "internalType": "address",
          "name": "owner",
          "type": "address"
        }
      ],
      "name": "balanceOf",
      "outputs": [
        {
          "internalType": "uint256",
          "name": "",
          "type": "uint256"
        }
      ],
      "stateMutability": "view",
      "type": "function"
    },
    {
      "inputs": [],
      "name": "baseTokenURI",
      "outputs": [
        {
          "internalType": "string",
          "name": "",
          "type": "string"
        }
      ],
      "stateMutability": "view",
      "type": "function"
    },
    {
      "inputs": [
        {
          "internalType": "uint256",
          "name": "tokenId",
          "type": "uint256"
        }
      ],
      "name": "getApproved",
      "outputs": [
        {
          "internalType": "address",
          "name": "",
          "type": "address"
        }
      ],
      "stateMutability": "view",
      "type": "function"
    },
    {
      "inputs": [
        {
          "internalType": "address",
          "name": "owner",
          "type": "address"
        },
        {
          "internalType": "address",
          "name": "operator",
          "type": "address"
        }
      ],
      "name": "isApprovedForAll",
      "outputs": [
        {
          "internalType": "bool",
          "name": "",
          "type": "bool"
        }
      ],
      "stateMutability": "view",
      "type": "function"
    },
    {
      "inputs": [],
      "name": "name",
      "outputs": [
        {
          "internalType": "string",
          "name": "",
          "type": "string"
        }
      ],
      "stateMutability": "view",
      "type": "function"
    },
    {
      "inputs": [],
      "name": "owner",
      "outputs": [
        {
          "internalType": "address",
          "name": "",
          "type": "address"
        }
      ],
      "stateMutability": "view",
      "type": "function"
    },
    {
      "inputs": [
        {
          "internalType": "uint256",
          "name": "tokenId",
          "type": "uint256"
        }
      ],
      "name": "ownerOf",
      "outputs": [
        {
          "internalType": "address",
          "name": "",
          "type": "address"
        }
      ],
      "stateMutability": "view",
      "type": "function"
    },
    {
      "inputs": [
        {
          "internalType": "address",
          "name": "dest",
          "type": "address"
        }
      ],
      "name": "payments",
      "outputs": [
        {
          "internalType": "uint256",
          "name": "",
          "type": "uint256"
        }
      ],
      "stateMutability": "view",
      "type": "function"
    },
    {
      "inputs": [],
      "name": "renounceOwnership",
      "outputs": [],
      "stateMutability": "nonpayable",
      "type": "function"
    },
    {
      "inputs": [
        {
          "internalType": "address",
          "name": "to",
          "type": "address"
        },
        {
          "internalType": "string",
          "name": "uri",
          "type": "string"
        }
      ],
      "name": "safeMint",
      "outputs": [],
      "stateMutability": "payable",
      "type": "function"
    },
    {
      "inputs": [
        {
          "internalType": "address",
          "name": "from",
          "type": "address"
        },
        {
          "internalType": "address",
          "name": "to",
          "type": "address"
        },
        {
          "internalType": "uint256",
          "name": "tokenId",
          "type": "uint256"
        }
      ],
      "name": "safeTransferFrom",
      "outputs": [],
      "stateMutability": "nonpayable",
      "type": "function"
    },
    {
      "inputs": [
        {
          "internalType": "address",
          "name": "from",
          "type": "address"
        },
        {
          "internalType": "address",
          "name": "to",
          "type": "address"
        },
        {
          "internalType": "uint256",
          "name": "tokenId",
          "type": "uint256"
        },
        {
          "internalType": "bytes",
          "name": "_data",
          "type": "bytes"
        }
      ],
      "name": "safeTransferFrom",
      "outputs": [],
      "stateMutability": "nonpayable",
      "type": "function"
    },
    {
      "inputs": [
        {
          "internalType": "address",
          "name": "operator",
          "type": "address"
        },
        {
          "internalType": "bool",
          "name": "approved",
          "type": "bool"
        }
      ],
      "name": "setApprovalForAll",
      "outputs": [],
      "stateMutability": "nonpayable",
      "type": "function"
    },
    {
      "inputs": [
        {
          "internalType": "string",
          "name": "_baseTokenURI",
          "type": "string"
        }
      ],
      "name": "setBaseTokenURI",
      "outputs": [],
      "stateMutability": "nonpayable",
      "type": "function"
    },
    {
      "inputs": [
        {
          "internalType": "bytes4",
          "name": "interfaceId",
          "type": "bytes4"
        }
      ],
      "name": "supportsInterface",
      "outputs": [
        {
          "internalType": "bool",
          "name": "",
          "type": "bool"
        }
      ],
      "stateMutability": "view",
      "type": "function"
    },
    {
      "inputs": [],
      "name": "symbol",
      "outputs": [
        {
          "internalType": "string",
          "name": "",
          "type": "string"
        }
      ],
      "stateMutability": "view",
      "type": "function"
    },
    {
      "inputs": [
        {
          "internalType": "uint256",
          "name": "index",
          "type": "uint256"
        }
      ],
      "name": "tokenByIndex",
      "outputs": [
        {
          "internalType": "uint256",
          "name": "",
          "type": "uint256"
        }
      ],
      "stateMutability": "view",
      "type": "function"
    },
    {
      "inputs": [
        {
          "internalType": "address",
          "name": "owner",
          "type": "address"
        },
        {
          "internalType": "uint256",
          "name": "index",
          "type": "uint256"
        }
      ],
      "name": "tokenOfOwnerByIndex",
      "outputs": [
        {
          "internalType": "uint256",
          "name": "",
          "type": "uint256"
        }
      ],
      "stateMutability": "view",
      "type": "function"
    },
    {
      "inputs": [
        {
          "internalType": "uint256",
          "name": "tokenId",
          "type": "uint256"
        }
      ],
      "name": "tokenURI",
      "outputs": [
        {
          "internalType": "string",
          "name": "",
          "type": "string"
        }
      ],
      "stateMutability": "view",
      "type": "function"
    },
    {
      "inputs": [],
      "name": "totalSupply",
      "outputs": [
        {
          "internalType": "uint256",
          "name": "",
          "type": "uint256"
        }
      ],
      "stateMutability": "view",
      "type": "function"
    },
    {
      "inputs": [
        {
          "internalType": "address",
          "name": "from",
          "type": "address"
        },
        {
          "internalType": "address",
          "name": "to",
          "type": "address"
        },
        {
          "internalType": "uint256",
          "name": "tokenId",
          "type": "uint256"
        }
      ],
      "name": "transferFrom",
      "outputs": [],
      "stateMutability": "nonpayable",
      "type": "function"
    },
    {
      "inputs": [
        {
          "internalType": "address",
          "name": "newOwner",
          "type": "address"
        }
      ],
      "name": "transferOwnership",
      "outputs": [],
      "stateMutability": "nonpayable",
      "type": "function"
    },
    {
      "inputs": [
        {
          "internalType": "address payable",
          "name": "payee",
          "type": "address"
        }
      ],
      "name": "withdrawPayments",
      "outputs": [],
      "stateMutability": "nonpayable",
      "type": "function"
    }
  ],
  "bytecode": "0x60a06040523480156200001157600080fd5b506040518060400160405280600381526020017f4e465400000000000000000000000000000000000000000000000000000000008152506040518060400160405280600381526020017f564d53000000000000000000000000000000000000000000000000000000000081525081600090805190602001906200009692919062000230565b508060019080519060200190620000af92919062000230565b505050620000d2620000c66200016260201b60201c565b6200016a60201b60201c565b604051620000e090620002c1565b604051809103906000f080158015620000fd573d6000803e3d6000fd5b5073ffffffffffffffffffffffffffffffffffffffff1660808173ffffffffffffffffffffffffffffffffffffffff1660601b8152505060405180602001604052806000815250600d90805190602001906200015b92919062000230565b5062000353565b600033905090565b6000600b60009054906101000a900473ffffffffffffffffffffffffffffffffffffffff16905081600b60006101000a81548173ffffffffffffffffffffffffffffffffffffffff021916908373ffffffffffffffffffffffffffffffffffffffff1602179055508173ffffffffffffffffffffffffffffffffffffffff168173ffffffffffffffffffffffffffffffffffffffff167f8be0079c531659141344cd1fd0a4f28419497f9722a3daafe3b4186f6b6457e060405160405180910390a35050565b8280546200023e90620002ee565b90600052602060002090601f016020900481019282620002625760008555620002ae565b82601f106200027d57805160ff1916838001178555620002ae565b82800160010185558215620002ae579182015b82811115620002ad57825182559160200191906001019062000290565b5b509050620002bd9190620002cf565b5090565b610d09806200425283390190565b5b80821115620002ea576000816000905550600101620002d0565b5090565b600060028204905060018216806200030757607f821691505b602082108114156200031e576200031d62000324565b5b50919050565b7f4e487b7100000000000000000000000000000000000000000000000000000000600052602260045260246000fd5b60805160601c613ed96200037960003960008181610f7a01526116a20152613ed96000f3fe6080604052600436106101665760003560e01c806370a08231116100d1578063b88d4fde1161008a578063d547cfb711610064578063d547cfb71461053f578063e2982c211461056a578063e985e9c5146105a7578063f2fde38b146105e457610166565b8063b88d4fde146104bd578063c87b56dd146104e6578063d204c45e1461052357610166565b806370a08231146103bf578063715018a6146103fc5780638da5cb5b14610413578063902d55a51461043e57806395d89b4114610469578063a22cb4651461049457610166565b80632f745c59116101235780632f745c591461028d57806330176e13146102ca57806331b3eb94146102f357806342842e0e1461031c5780634f6ccce7146103455780636352211e1461038257610166565b806301ffc9a71461016b57806306fdde03146101a8578063081812fc146101d3578063095ea7b31461021057806318160ddd1461023957806323b872dd14610264575b600080fd5b34801561017757600080fd5b50610192600480360381019061018d9190612c3b565b61060d565b60405161019f9190613184565b60405180910390f35b3480156101b457600080fd5b506101bd61061f565b6040516101ca919061319f565b60405180910390f35b3480156101df57600080fd5b506101fa60048036038101906101f59190612cce565b6106b1565b6040516102079190613102565b60405180910390f35b34801561021c57600080fd5b5061023760048036038101906102329190612bff565b610736565b005b34801561024557600080fd5b5061024e61084e565b60405161025b9190613461565b60405180910390f35b34801561027057600080fd5b5061028b60048036038101906102869190612aa5565b61085b565b005b34801561029957600080fd5b506102b460048036038101906102af9190612bff565b6108bb565b6040516102c19190613461565b60405180910390f35b3480156102d657600080fd5b506102f160048036038101906102ec9190612c8d565b610960565b005b3480156102ff57600080fd5b5061031a60048036038101906103159190612a40565b6109f6565b005b34801561032857600080fd5b50610343600480360381019061033e9190612aa5565b610a7e565b005b34801561035157600080fd5b5061036c60048036038101906103679190612cce565b610a9e565b6040516103799190613461565b60405180910390f35b34801561038e57600080fd5b506103a960048036038101906103a49190612cce565b610b35565b6040516103b69190613102565b60405180910390f35b3480156103cb57600080fd5b506103e660048036038101906103e19190612a17565b610be7565b6040516103f39190613461565b60405180910390f35b34801561040857600080fd5b50610411610c9f565b005b34801561041f57600080fd5b50610428610d27565b6040516104359190613102565b60405180910390f35b34801561044a57600080fd5b50610453610d51565b6040516104609190613461565b60405180910390f35b34801561047557600080fd5b5061047e610d57565b60405161048b919061319f565b60405180910390f35b3480156104a057600080fd5b506104bb60048036038101906104b69190612b6f565b610de9565b005b3480156104c957600080fd5b506104e460048036038101906104df9190612af4565b610dff565b005b3480156104f257600080fd5b5061050d60048036038101906105089190612cce565b610e61565b60405161051a919061319f565b60405180910390f35b61053d60048036038101906105389190612bab565b610e73565b005b34801561054b57600080fd5b50610554610ee8565b604051610561919061319f565b60405180910390f35b34801561057657600080fd5b50610591600480360381019061058c9190612a17565b610f76565b60405161059e9190613461565b60405180910390f35b3480156105b357600080fd5b506105ce60048036038101906105c99190612a69565b611028565b6040516105db9190613184565b60405180910390f35b3480156105f057600080fd5b5061060b60048036038101906106069190612a17565b6110bc565b005b6000610618826111b4565b9050919050565b60606000805461062e906136c9565b80601f016020809104026020016040519081016040528092919081815260200182805461065a906136c9565b80156106a75780601f1061067c576101008083540402835291602001916106a7565b820191906000526020600020905b81548152906001019060200180831161068a57829003601f168201915b5050505050905090565b60006106bc8261122e565b6106fb576040517f08c379a00000000000000000000000000000000000000000000000000000000081526004016106f290613381565b60405180910390fd5b6004600083815260200190815260200160002060009054906101000a900473ffffffffffffffffffffffffffffffffffffffff169050919050565b600061074182610b35565b90508073ffffffffffffffffffffffffffffffffffffffff168373ffffffffffffffffffffffffffffffffffffffff1614156107b2576040517f08c379a00000000000000000000000000000000000000000000000000000000081526004016107a9906133e1565b60405180910390fd5b8073ffffffffffffffffffffffffffffffffffffffff166107d161129a565b73ffffffffffffffffffffffffffffffffffffffff16148061080057506107ff816107fa61129a565b611028565b5b61083f576040517f08c379a0000000000000000000000000000000000000000000000000000000008152600401610836906132c1565b60405180910390fd5b61084983836112a2565b505050565b6000600880549050905090565b61086c61086661129a565b8261135b565b6108ab576040517f08c379a00000000000000000000000000000000000000000000000000000000081526004016108a290613401565b60405180910390fd5b6108b6838383611439565b505050565b60006108c683610be7565b8210610907576040517f08c379a00000000000000000000000000000000000000000000000000000000081526004016108fe906131c1565b60405180910390fd5b600660008473ffffffffffffffffffffffffffffffffffffffff1673ffffffffffffffffffffffffffffffffffffffff168152602001908152602001600020600083815260200190815260200160002054905092915050565b61096861129a565b73ffffffffffffffffffffffffffffffffffffffff16610986610d27565b73ffffffffffffffffffffffffffffffffffffffff16146109dc576040517f08c379a00000000000000000000000000000000000000000000000000000000081526004016109d3906133a1565b60405180910390fd5b80600d90805190602001906109f2929190612811565b5050565b6109fe61129a565b73ffffffffffffffffffffffffffffffffffffffff16610a1c610d27565b73ffffffffffffffffffffffffffffffffffffffff1614610a72576040517f08c379a0000000000000000000000000000000000000000000000000000000008152600401610a69906133a1565b60405180910390fd5b610a7b816116a0565b50565b610a9983838360405180602001604052806000815250610dff565b505050565b6000610aa861084e565b8210610ae9576040517f08c379a0000000000000000000000000000000000000000000000000000000008152600401610ae090613441565b60405180910390fd5b60088281548110610b23577f4e487b7100000000000000000000000000000000000000000000000000000000600052603260045260246000fd5b90600052602060002001549050919050565b6000806002600084815260200190815260200160002060009054906101000a900473ffffffffffffffffffffffffffffffffffffffff169050600073ffffffffffffffffffffffffffffffffffffffff168173ffffffffffffffffffffffffffffffffffffffff161415610bde576040517f08c379a0000000000000000000000000000000000000000000000000000000008152600401610bd590613301565b60405180910390fd5b80915050919050565b60008073ffffffffffffffffffffffffffffffffffffffff168273ffffffffffffffffffffffffffffffffffffffff161415610c58576040517f08c379a0000000000000000000000000000000000000000000000000000000008152600401610c4f906132e1565b60405180910390fd5b600360008373ffffffffffffffffffffffffffffffffffffffff1673ffffffffffffffffffffffffffffffffffffffff168152602001908152602001600020549050919050565b610ca761129a565b73ffffffffffffffffffffffffffffffffffffffff16610cc5610d27565b73ffffffffffffffffffffffffffffffffffffffff1614610d1b576040517f08c379a0000000000000000000000000000000000000000000000000000000008152600401610d12906133a1565b60405180910390fd5b610d25600061172e565b565b6000600b60009054906101000a900473ffffffffffffffffffffffffffffffffffffffff16905090565b61271081565b606060018054610d66906136c9565b80601f0160208091040260200160405190810160405280929190818152602001828054610d92906136c9565b8015610ddf5780601f10610db457610100808354040283529160200191610ddf565b820191906000526020600020905b815481529060010190602001808311610dc257829003601f168201915b5050505050905090565b610dfb610df461129a565b83836117f4565b5050565b610e10610e0a61129a565b8361135b565b610e4f576040517f08c379a0000000000000000000000000000000000000000000000000000000008152600401610e4690613401565b60405180910390fd5b610e5b84848484611961565b50505050565b6060610e6c826119bd565b9050919050565b6000610e7f600c611b0f565b90506127108110610ec5576040517f08c379a0000000000000000000000000000000000000000000000000000000008152600401610ebc90613421565b60405180910390fd5b610ecf600c611b1d565b610ed98382611b33565b610ee38183611b51565b505050565b600d8054610ef5906136c9565b80601f0160208091040260200160405190810160405280929190818152602001828054610f21906136c9565b8015610f6e5780601f10610f4357610100808354040283529160200191610f6e565b820191906000526020600020905b815481529060010190602001808311610f5157829003601f168201915b505050505081565b60007f000000000000000000000000000000000000000000000000000000000000000073ffffffffffffffffffffffffffffffffffffffff1663e3a9db1a836040518263ffffffff1660e01b8152600401610fd19190613102565b60206040518083038186803b158015610fe957600080fd5b505afa158015610ffd573d6000803e3d6000fd5b505050506040513d601f19601f820116820180604052508101906110219190612cf7565b9050919050565b6000600560008473ffffffffffffffffffffffffffffffffffffffff1673ffffffffffffffffffffffffffffffffffffffff16815260200190815260200160002060008373ffffffffffffffffffffffffffffffffffffffff1673ffffffffffffffffffffffffffffffffffffffff16815260200190815260200160002060009054906101000a900460ff16905092915050565b6110c461129a565b73ffffffffffffffffffffffffffffffffffffffff166110e2610d27565b73ffffffffffffffffffffffffffffffffffffffff1614611138576040517f08c379a000000000000000000000000000000000000000000000000000000000815260040161112f906133a1565b60405180910390fd5b600073ffffffffffffffffffffffffffffffffffffffff168173ffffffffffffffffffffffffffffffffffffffff1614156111a8576040517f08c379a000000000000000000000000000000000000000000000000000000000815260040161119f90613201565b60405180910390fd5b6111b18161172e565b50565b60007f780e9d63000000000000000000000000000000000000000000000000000000007bffffffffffffffffffffffffffffffffffffffffffffffffffffffff1916827bffffffffffffffffffffffffffffffffffffffffffffffffffffffff19161480611227575061122682611bc5565b5b9050919050565b60008073ffffffffffffffffffffffffffffffffffffffff166002600084815260200190815260200160002060009054906101000a900473ffffffffffffffffffffffffffffffffffffffff1673ffffffffffffffffffffffffffffffffffffffff1614159050919050565b600033905090565b816004600083815260200190815260200160002060006101000a81548173ffffffffffffffffffffffffffffffffffffffff021916908373ffffffffffffffffffffffffffffffffffffffff160217905550808273ffffffffffffffffffffffffffffffffffffffff1661131583610b35565b73ffffffffffffffffffffffffffffffffffffffff167f8c5be1e5ebec7d5bd14f71427d1e84f3dd0314c0f7b2291e5b200ac8c7c3b92560405160405180910390a45050565b60006113668261122e565b6113a5576040517f08c379a000000000000000000000000000000000000000000000000000000000815260040161139c906132a1565b60405180910390fd5b60006113b083610b35565b90508073ffffffffffffffffffffffffffffffffffffffff168473ffffffffffffffffffffffffffffffffffffffff1614806113f257506113f18185611028565b5b8061143057508373ffffffffffffffffffffffffffffffffffffffff16611418846106b1565b73ffffffffffffffffffffffffffffffffffffffff16145b91505092915050565b8273ffffffffffffffffffffffffffffffffffffffff1661145982610b35565b73ffffffffffffffffffffffffffffffffffffffff16146114af576040517f08c379a00000000000000000000000000000000000000000000000000000000081526004016114a690613221565b60405180910390fd5b600073ffffffffffffffffffffffffffffffffffffffff168273ffffffffffffffffffffffffffffffffffffffff16141561151f576040517f08c379a000000000000000000000000000000000000000000000000000000000815260040161151690613261565b60405180910390fd5b61152a838383611ca7565b6115356000826112a2565b6001600360008573ffffffffffffffffffffffffffffffffffffffff1673ffffffffffffffffffffffffffffffffffffffff168152602001908152602001600020600082825461158591906135cd565b925050819055506001600360008473ffffffffffffffffffffffffffffffffffffffff1673ffffffffffffffffffffffffffffffffffffffff16815260200190815260200160002060008282546115dc9190613546565b92505081905550816002600083815260200190815260200160002060006101000a81548173ffffffffffffffffffffffffffffffffffffffff021916908373ffffffffffffffffffffffffffffffffffffffff160217905550808273ffffffffffffffffffffffffffffffffffffffff168473ffffffffffffffffffffffffffffffffffffffff167fddf252ad1be2c89b69c2b068fc378daa952ba7f163c4a11628f55a4df523b3ef60405160405180910390a461169b838383611cb7565b505050565b7f000000000000000000000000000000000000000000000000000000000000000073ffffffffffffffffffffffffffffffffffffffff166351cff8d9826040518263ffffffff1660e01b81526004016116f9919061311d565b600060405180830381600087803b15801561171357600080fd5b505af1158015611727573d6000803e3d6000fd5b5050505050565b6000600b60009054906101000a900473ffffffffffffffffffffffffffffffffffffffff16905081600b60006101000a81548173ffffffffffffffffffffffffffffffffffffffff021916908373ffffffffffffffffffffffffffffffffffffffff1602179055508173ffffffffffffffffffffffffffffffffffffffff168173ffffffffffffffffffffffffffffffffffffffff167f8be0079c531659141344cd1fd0a4f28419497f9722a3daafe3b4186f6b6457e060405160405180910390a35050565b8173ffffffffffffffffffffffffffffffffffffffff168373ffffffffffffffffffffffffffffffffffffffff161415611863576040517f08c379a000000000000000000000000000000000000000000000000000000000815260040161185a90613281565b60405180910390fd5b80600560008573ffffffffffffffffffffffffffffffffffffffff1673ffffffffffffffffffffffffffffffffffffffff16815260200190815260200160002060008473ffffffffffffffffffffffffffffffffffffffff1673ffffffffffffffffffffffffffffffffffffffff16815260200190815260200160002060006101000a81548160ff0219169083151502179055508173ffffffffffffffffffffffffffffffffffffffff168373ffffffffffffffffffffffffffffffffffffffff167f17307eab39ab6107e8899845ad3d59bd9653f200f220920489ca2b5937696c31836040516119549190613184565b60405180910390a3505050565b61196c848484611439565b61197884848484611cbc565b6119b7576040517f08c379a00000000000000000000000000000000000000000000000000000000081526004016119ae906131e1565b60405180910390fd5b50505050565b60606119c88261122e565b611a07576040517f08c379a00000000000000000000000000000000000000000000000000000000081526004016119fe90613361565b60405180910390fd5b6000600a60008481526020019081526020016000208054611a27906136c9565b80601f0160208091040260200160405190810160405280929190818152602001828054611a53906136c9565b8015611aa05780601f10611a7557610100808354040283529160200191611aa0565b820191906000526020600020905b815481529060010190602001808311611a8357829003601f168201915b505050505090506000611ab1611e53565b9050600081511415611ac7578192505050611b0a565b600082511115611afc578082604051602001611ae49291906130de565b60405160208183030381529060405292505050611b0a565b611b0584611e6a565b925050505b919050565b600081600001549050919050565b6001816000016000828254019250508190555050565b611b4d828260405180602001604052806000815250611f11565b5050565b611b5a8261122e565b611b99576040517f08c379a0000000000000000000000000000000000000000000000000000000008152600401611b9090613321565b60405180910390fd5b80600a60008481526020019081526020016000209080519060200190611bc0929190612811565b505050565b60007f80ac58cd000000000000000000000000000000000000000000000000000000007bffffffffffffffffffffffffffffffffffffffffffffffffffffffff1916827bffffffffffffffffffffffffffffffffffffffffffffffffffffffff19161480611c9057507f5b5e139f000000000000000000000000000000000000000000000000000000007bffffffffffffffffffffffffffffffffffffffffffffffffffffffff1916827bffffffffffffffffffffffffffffffffffffffffffffffffffffffff1916145b80611ca05750611c9f82611f6c565b5b9050919050565b611cb2838383611fd6565b505050565b505050565b6000611cdd8473ffffffffffffffffffffffffffffffffffffffff166120ea565b15611e46578373ffffffffffffffffffffffffffffffffffffffff1663150b7a02611d0661129a565b8786866040518563ffffffff1660e01b8152600401611d289493929190613138565b602060405180830381600087803b158015611d4257600080fd5b505af1925050508015611d7357506040513d601f19601f82011682018060405250810190611d709190612c64565b60015b611df6573d8060008114611da3576040519150601f19603f3d011682016040523d82523d6000602084013e611da8565b606091505b50600081511415611dee576040517f08c379a0000000000000000000000000000000000000000000000000000000008152600401611de5906131e1565b60405180910390fd5b805181602001fd5b63150b7a0260e01b7bffffffffffffffffffffffffffffffffffffffffffffffffffffffff1916817bffffffffffffffffffffffffffffffffffffffffffffffffffffffff191614915050611e4b565b600190505b949350505050565b606060405180602001604052806000815250905090565b6060611e758261122e565b611eb4576040517f08c379a0000000000000000000000000000000000000000000000000000000008152600401611eab906133c1565b60405180910390fd5b6000611ebe611e53565b90506000815111611ede5760405180602001604052806000815250611f09565b80611ee88461210d565b604051602001611ef99291906130de565b6040516020818303038152906040525b915050919050565b611f1b83836122ba565b611f286000848484611cbc565b611f67576040517f08c379a0000000000000000000000000000000000000000000000000000000008152600401611f5e906131e1565b60405180910390fd5b505050565b60007f01ffc9a7000000000000000000000000000000000000000000000000000000007bffffffffffffffffffffffffffffffffffffffffffffffffffffffff1916827bffffffffffffffffffffffffffffffffffffffffffffffffffffffff1916149050919050565b611fe1838383612494565b600073ffffffffffffffffffffffffffffffffffffffff168373ffffffffffffffffffffffffffffffffffffffff1614156120245761201f81612499565b612063565b8173ffffffffffffffffffffffffffffffffffffffff168373ffffffffffffffffffffffffffffffffffffffff16146120625761206183826124e2565b5b5b600073ffffffffffffffffffffffffffffffffffffffff168273ffffffffffffffffffffffffffffffffffffffff1614156120a6576120a18161264f565b6120e5565b8273ffffffffffffffffffffffffffffffffffffffff168273ffffffffffffffffffffffffffffffffffffffff16146120e4576120e38282612792565b5b5b505050565b6000808273ffffffffffffffffffffffffffffffffffffffff163b119050919050565b60606000821415612155576040518060400160405280600181526020017f300000000000000000000000000000000000000000000000000000000000000081525090506122b5565b600082905060005b600082146121875780806121709061372c565b915050600a82612180919061359c565b915061215d565b60008167ffffffffffffffff8111156121c9577f4e487b7100000000000000000000000000000000000000000000000000000000600052604160045260246000fd5b6040519080825280601f01601f1916602001820160405280156121fb5781602001600182028036833780820191505090505b5090505b600085146122ae5760018261221491906135cd565b9150600a856122239190613775565b603061222f9190613546565b60f81b81838151811061226b577f4e487b7100000000000000000000000000000000000000000000000000000000600052603260045260246000fd5b60200101907effffffffffffffffffffffffffffffffffffffffffffffffffffffffffffff1916908160001a905350600a856122a7919061359c565b94506121ff565b8093505050505b919050565b600073ffffffffffffffffffffffffffffffffffffffff168273ffffffffffffffffffffffffffffffffffffffff16141561232a576040517f08c379a000000000000000000000000000000000000000000000000000000000815260040161232190613341565b60405180910390fd5b6123338161122e565b15612373576040517f08c379a000000000000000000000000000000000000000000000000000000000815260040161236a90613241565b60405180910390fd5b61237f60008383611ca7565b6001600360008473ffffffffffffffffffffffffffffffffffffffff1673ffffffffffffffffffffffffffffffffffffffff16815260200190815260200160002060008282546123cf9190613546565b92505081905550816002600083815260200190815260200160002060006101000a81548173ffffffffffffffffffffffffffffffffffffffff021916908373ffffffffffffffffffffffffffffffffffffffff160217905550808273ffffffffffffffffffffffffffffffffffffffff16600073ffffffffffffffffffffffffffffffffffffffff167fddf252ad1be2c89b69c2b068fc378daa952ba7f163c4a11628f55a4df523b3ef60405160405180910390a461249060008383611cb7565b5050565b505050565b6008805490506009600083815260200190815260200160002081905550600881908060018154018082558091505060019003906000526020600020016000909190919091505550565b600060016124ef84610be7565b6124f991906135cd565b90506000600760008481526020019081526020016000205490508181146125de576000600660008673ffffffffffffffffffffffffffffffffffffffff1673ffffffffffffffffffffffffffffffffffffffff168152602001908152602001600020600084815260200190815260200160002054905080600660008773ffffffffffffffffffffffffffffffffffffffff1673ffffffffffffffffffffffffffffffffffffffff168152602001908152602001600020600084815260200190815260200160002081905550816007600083815260200190815260200160002081905550505b6007600084815260200190815260200160002060009055600660008573ffffffffffffffffffffffffffffffffffffffff1673ffffffffffffffffffffffffffffffffffffffff16815260200190815260200160002060008381526020019081526020016000206000905550505050565b6000600160088054905061266391906135cd565b90506000600960008481526020019081526020016000205490506000600883815481106126b9577f4e487b7100000000000000000000000000000000000000000000000000000000600052603260045260246000fd5b906000526020600020015490508060088381548110612701577f4e487b7100000000000000000000000000000000000000000000000000000000600052603260045260246000fd5b906000526020600020018190555081600960008381526020019081526020016000208190555060096000858152602001908152602001600020600090556008805480612776577f4e487b7100000000000000000000000000000000000000000000000000000000600052603160045260246000fd5b6001900381819060005260206000200160009055905550505050565b600061279d83610be7565b905081600660008573ffffffffffffffffffffffffffffffffffffffff1673ffffffffffffffffffffffffffffffffffffffff168152602001908152602001600020600083815260200190815260200160002081905550806007600084815260200190815260200160002081905550505050565b82805461281d906136c9565b90600052602060002090601f01602090048101928261283f5760008555612886565b82601f1061285857805160ff1916838001178555612886565b82800160010185558215612886579182015b8281111561288557825182559160200191906001019061286a565b5b5090506128939190612897565b5090565b5b808211156128b0576000816000905550600101612898565b5090565b60006128c76128c2846134a1565b61347c565b9050828152602081018484840111156128df57600080fd5b6128ea848285613687565b509392505050565b6000612905612900846134d2565b61347c565b90508281526020810184848401111561291d57600080fd5b612928848285613687565b509392505050565b60008135905061293f81613e30565b92915050565b60008135905061295481613e47565b92915050565b60008135905061296981613e5e565b92915050565b60008135905061297e81613e75565b92915050565b60008151905061299381613e75565b92915050565b600082601f8301126129aa57600080fd5b81356129ba8482602086016128b4565b91505092915050565b600082601f8301126129d457600080fd5b81356129e48482602086016128f2565b91505092915050565b6000813590506129fc81613e8c565b92915050565b600081519050612a1181613e8c565b92915050565b600060208284031215612a2957600080fd5b6000612a3784828501612930565b91505092915050565b600060208284031215612a5257600080fd5b6000612a6084828501612945565b91505092915050565b60008060408385031215612a7c57600080fd5b6000612a8a85828601612930565b9250506020612a9b85828601612930565b9150509250929050565b600080600060608486031215612aba57600080fd5b6000612ac886828701612930565b9350506020612ad986828701612930565b9250506040612aea868287016129ed565b9150509250925092565b60008060008060808587031215612b0a57600080fd5b6000612b1887828801612930565b9450506020612b2987828801612930565b9350506040612b3a878288016129ed565b925050606085013567ffffffffffffffff811115612b5757600080fd5b612b6387828801612999565b91505092959194509250565b60008060408385031215612b8257600080fd5b6000612b9085828601612930565b9250506020612ba18582860161295a565b9150509250929050565b60008060408385031215612bbe57600080fd5b6000612bcc85828601612930565b925050602083013567ffffffffffffffff811115612be957600080fd5b612bf5858286016129c3565b9150509250929050565b60008060408385031215612c1257600080fd5b6000612c2085828601612930565b9250506020612c31858286016129ed565b9150509250929050565b600060208284031215612c4d57600080fd5b6000612c5b8482850161296f565b91505092915050565b600060208284031215612c7657600080fd5b6000612c8484828501612984565b91505092915050565b600060208284031215612c9f57600080fd5b600082013567ffffffffffffffff811115612cb957600080fd5b612cc5848285016129c3565b91505092915050565b600060208284031215612ce057600080fd5b6000612cee848285016129ed565b91505092915050565b600060208284031215612d0957600080fd5b6000612d1784828501612a02565b91505092915050565b612d2981613613565b82525050565b612d3881613601565b82525050565b612d4781613625565b82525050565b6000612d5882613503565b612d628185613519565b9350612d72818560208601613696565b612d7b81613862565b840191505092915050565b6000612d918261350e565b612d9b818561352a565b9350612dab818560208601613696565b612db481613862565b840191505092915050565b6000612dca8261350e565b612dd4818561353b565b9350612de4818560208601613696565b80840191505092915050565b6000612dfd602b8361352a565b9150612e0882613873565b604082019050919050565b6000612e2060328361352a565b9150612e2b826138c2565b604082019050919050565b6000612e4360268361352a565b9150612e4e82613911565b604082019050919050565b6000612e6660258361352a565b9150612e7182613960565b604082019050919050565b6000612e89601c8361352a565b9150612e94826139af565b602082019050919050565b6000612eac60248361352a565b9150612eb7826139d8565b604082019050919050565b6000612ecf60198361352a565b9150612eda82613a27565b602082019050919050565b6000612ef2602c8361352a565b9150612efd82613a50565b604082019050919050565b6000612f1560388361352a565b9150612f2082613a9f565b604082019050919050565b6000612f38602a8361352a565b9150612f4382613aee565b604082019050919050565b6000612f5b60298361352a565b9150612f6682613b3d565b604082019050919050565b6000612f7e602e8361352a565b9150612f8982613b8c565b604082019050919050565b6000612fa160208361352a565b9150612fac82613bdb565b602082019050919050565b6000612fc460318361352a565b9150612fcf82613c04565b604082019050919050565b6000612fe7602c8361352a565b9150612ff282613c53565b604082019050919050565b600061300a60208361352a565b915061301582613ca2565b602082019050919050565b600061302d602f8361352a565b915061303882613ccb565b604082019050919050565b600061305060218361352a565b915061305b82613d1a565b604082019050919050565b600061307360318361352a565b915061307e82613d69565b604082019050919050565b600061309660128361352a565b91506130a182613db8565b602082019050919050565b60006130b9602c8361352a565b91506130c482613de1565b604082019050919050565b6130d88161367d565b82525050565b60006130ea8285612dbf565b91506130f68284612dbf565b91508190509392505050565b60006020820190506131176000830184612d2f565b92915050565b60006020820190506131326000830184612d20565b92915050565b600060808201905061314d6000830187612d2f565b61315a6020830186612d2f565b61316760408301856130cf565b81810360608301526131798184612d4d565b905095945050505050565b60006020820190506131996000830184612d3e565b92915050565b600060208201905081810360008301526131b98184612d86565b905092915050565b600060208201905081810360008301526131da81612df0565b9050919050565b600060208201905081810360008301526131fa81612e13565b9050919050565b6000602082019050818103600083015261321a81612e36565b9050919050565b6000602082019050818103600083015261323a81612e59565b9050919050565b6000602082019050818103600083015261325a81612e7c565b9050919050565b6000602082019050818103600083015261327a81612e9f565b9050919050565b6000602082019050818103600083015261329a81612ec2565b9050919050565b600060208201905081810360008301526132ba81612ee5565b9050919050565b600060208201905081810360008301526132da81612f08565b9050919050565b600060208201905081810360008301526132fa81612f2b565b9050919050565b6000602082019050818103600083015261331a81612f4e565b9050919050565b6000602082019050818103600083015261333a81612f71565b9050919050565b6000602082019050818103600083015261335a81612f94565b9050919050565b6000602082019050818103600083015261337a81612fb7565b9050919050565b6000602082019050818103600083015261339a81612fda565b9050919050565b600060208201905081810360008301526133ba81612ffd565b9050919050565b600060208201905081810360008301526133da81613020565b9050919050565b600060208201905081810360008301526133fa81613043565b9050919050565b6000602082019050818103600083015261341a81613066565b9050919050565b6000602082019050818103600083015261343a81613089565b9050919050565b6000602082019050818103600083015261345a816130ac565b9050919050565b600060208201905061347660008301846130cf565b92915050565b6000613486613497565b905061349282826136fb565b919050565b6000604051905090565b600067ffffffffffffffff8211156134bc576134bb613833565b5b6134c582613862565b9050602081019050919050565b600067ffffffffffffffff8211156134ed576134ec613833565b5b6134f682613862565b9050602081019050919050565b600081519050919050565b600081519050919050565b600082825260208201905092915050565b600082825260208201905092915050565b600081905092915050565b60006135518261367d565b915061355c8361367d565b9250827fffffffffffffffffffffffffffffffffffffffffffffffffffffffffffffffff03821115613591576135906137a6565b5b828201905092915050565b60006135a78261367d565b91506135b28361367d565b9250826135c2576135c16137d5565b5b828204905092915050565b60006135d88261367d565b91506135e38361367d565b9250828210156135f6576135f56137a6565b5b828203905092915050565b600061360c8261365d565b9050919050565b600061361e8261365d565b9050919050565b60008115159050919050565b60007fffffffff0000000000000000000000000000000000000000000000000000000082169050919050565b600073ffffffffffffffffffffffffffffffffffffffff82169050919050565b6000819050919050565b82818337600083830152505050565b60005b838110156136b4578082015181840152602081019050613699565b838111156136c3576000848401525b50505050565b600060028204905060018216806136e157607f821691505b602082108114156136f5576136f4613804565b5b50919050565b61370482613862565b810181811067ffffffffffffffff8211171561372357613722613833565b5b80604052505050565b60006137378261367d565b91507fffffffffffffffffffffffffffffffffffffffffffffffffffffffffffffffff82141561376a576137696137a6565b5b600182019050919050565b60006137808261367d565b915061378b8361367d565b92508261379b5761379a6137d5565b5b828206905092915050565b7f4e487b7100000000000000000000000000000000000000000000000000000000600052601160045260246000fd5b7f4e487b7100000000000000000000000000000000000000000000000000000000600052601260045260246000fd5b7f4e487b7100000000000000000000000000000000000000000000000000000000600052602260045260246000fd5b7f4e487b7100000000000000000000000000000000000000000000000000000000600052604160045260246000fd5b6000601f19601f8301169050919050565b7f455243373231456e756d657261626c653a206f776e657220696e646578206f7560008201527f74206f6620626f756e6473000000000000000000000000000000000000000000602082015250565b7f4552433732313a207472616e7366657220746f206e6f6e20455243373231526560008201527f63656976657220696d706c656d656e7465720000000000000000000000000000602082015250565b7f4f776e61626c653a206e6577206f776e657220697320746865207a65726f206160008201527f6464726573730000000000000000000000000000000000000000000000000000602082015250565b7f4552433732313a207472616e736665722066726f6d20696e636f72726563742060008201527f6f776e6572000000000000000000000000000000000000000000000000000000602082015250565b7f4552433732313a20746f6b656e20616c7265616479206d696e74656400000000600082015250565b7f4552433732313a207472616e7366657220746f20746865207a65726f2061646460008201527f7265737300000000000000000000000000000000000000000000000000000000602082015250565b7f4552433732313a20617070726f766520746f2063616c6c657200000000000000600082015250565b7f4552433732313a206f70657261746f7220717565727920666f72206e6f6e657860008201527f697374656e7420746f6b656e0000000000000000000000000000000000000000602082015250565b7f4552433732313a20617070726f76652063616c6c6572206973206e6f74206f7760008201527f6e6572206e6f7220617070726f76656420666f7220616c6c0000000000000000602082015250565b7f4552433732313a2062616c616e636520717565727920666f7220746865207a6560008201527f726f206164647265737300000000000000000000000000000000000000000000602082015250565b7f4552433732313a206f776e657220717565727920666f72206e6f6e657869737460008201527f656e7420746f6b656e0000000000000000000000000000000000000000000000602082015250565b7f45524337323155524953746f726167653a2055524920736574206f66206e6f6e60008201527f6578697374656e7420746f6b656e000000000000000000000000000000000000602082015250565b7f4552433732313a206d696e7420746f20746865207a65726f2061646472657373600082015250565b7f45524337323155524953746f726167653a2055524920717565727920666f722060008201527f6e6f6e6578697374656e7420746f6b656e000000000000000000000000000000602082015250565b7f4552433732313a20617070726f76656420717565727920666f72206e6f6e657860008201527f697374656e7420746f6b656e0000000000000000000000000000000000000000602082015250565b7f4f776e61626c653a2063616c6c6572206973206e6f7420746865206f776e6572600082015250565b7f4552433732314d657461646174613a2055524920717565727920666f72206e6f60008201527f6e6578697374656e7420746f6b656e0000000000000000000000000000000000602082015250565b7f4552433732313a20617070726f76616c20746f2063757272656e74206f776e6560008201527f7200000000000000000000000000000000000000000000000000000000000000602082015250565b7f4552433732313a207472616e736665722063616c6c6572206973206e6f74206f60008201527f776e6572206e6f7220617070726f766564000000000000000000000000000000602082015250565b7f4d617820737570706c7920726561636865640000000000000000000000000000600082015250565b7f455243373231456e756d657261626c653a20676c6f62616c20696e646578206f60008201527f7574206f6620626f756e64730000000000000000000000000000000000000000602082015250565b613e3981613601565b8114613e4457600080fd5b50565b613e5081613613565b8114613e5b57600080fd5b50565b613e6781613625565b8114613e7257600080fd5b50565b613e7e81613631565b8114613e8957600080fd5b50565b613e958161367d565b8114613ea057600080fd5b5056fea26469706673582212208fd954a81f2754b75153a6f0db5a68ffd6fc3069e8dd231e3df6a68017540e3f64736f6c63430008040033608060405234801561001057600080fd5b5061002d61002261003260201b60201c565b61003a60201b60201c565b6100fe565b600033905090565b60008060009054906101000a900473ffffffffffffffffffffffffffffffffffffffff169050816000806101000a81548173ffffffffffffffffffffffffffffffffffffffff021916908373ffffffffffffffffffffffffffffffffffffffff1602179055508173ffffffffffffffffffffffffffffffffffffffff168173ffffffffffffffffffffffffffffffffffffffff167f8be0079c531659141344cd1fd0a4f28419497f9722a3daafe3b4186f6b6457e060405160405180910390a35050565b610bfc8061010d6000396000f3fe6080604052600436106100555760003560e01c806351cff8d91461005a578063715018a6146100835780638da5cb5b1461009a578063e3a9db1a146100c5578063f2fde38b14610102578063f340fa011461012b575b600080fd5b34801561006657600080fd5b50610081600480360381019061007c91906107f5565b610147565b005b34801561008f57600080fd5b506100986102c7565b005b3480156100a657600080fd5b506100af61034f565b6040516100bc9190610900565b60405180910390f35b3480156100d157600080fd5b506100ec60048036038101906100e791906107cc565b610378565b6040516100f9919061099b565b60405180910390f35b34801561010e57600080fd5b50610129600480360381019061012491906107cc565b6103c1565b005b610145600480360381019061014091906107cc565b6104b9565b005b61014f6105e2565b73ffffffffffffffffffffffffffffffffffffffff1661016d61034f565b73ffffffffffffffffffffffffffffffffffffffff16146101c3576040517f08c379a00000000000000000000000000000000000000000000000000000000081526004016101ba9061097b565b60405180910390fd5b6000600160008373ffffffffffffffffffffffffffffffffffffffff1673ffffffffffffffffffffffffffffffffffffffff1681526020019081526020016000205490506000600160008473ffffffffffffffffffffffffffffffffffffffff1673ffffffffffffffffffffffffffffffffffffffff16815260200190815260200160002081905550610275818373ffffffffffffffffffffffffffffffffffffffff166105ea90919063ffffffff16565b8173ffffffffffffffffffffffffffffffffffffffff167f7084f5476618d8e60b11ef0d7d3f06914655adb8793e28ff7f018d4c76d505d5826040516102bb919061099b565b60405180910390a25050565b6102cf6105e2565b73ffffffffffffffffffffffffffffffffffffffff166102ed61034f565b73ffffffffffffffffffffffffffffffffffffffff1614610343576040517f08c379a000000000000000000000000000000000000000000000000000000000815260040161033a9061097b565b60405180910390fd5b61034d60006106de565b565b60008060009054906101000a900473ffffffffffffffffffffffffffffffffffffffff16905090565b6000600160008373ffffffffffffffffffffffffffffffffffffffff1673ffffffffffffffffffffffffffffffffffffffff168152602001908152602001600020549050919050565b6103c96105e2565b73ffffffffffffffffffffffffffffffffffffffff166103e761034f565b73ffffffffffffffffffffffffffffffffffffffff161461043d576040517f08c379a00000000000000000000000000000000000000000000000000000000081526004016104349061097b565b60405180910390fd5b600073ffffffffffffffffffffffffffffffffffffffff168173ffffffffffffffffffffffffffffffffffffffff1614156104ad576040517f08c379a00000000000000000000000000000000000000000000000000000000081526004016104a49061091b565b60405180910390fd5b6104b6816106de565b50565b6104c16105e2565b73ffffffffffffffffffffffffffffffffffffffff166104df61034f565b73ffffffffffffffffffffffffffffffffffffffff1614610535576040517f08c379a000000000000000000000000000000000000000000000000000000000815260040161052c9061097b565b60405180910390fd5b600034905080600160008473ffffffffffffffffffffffffffffffffffffffff1673ffffffffffffffffffffffffffffffffffffffff168152602001908152602001600020600082825461058991906109d2565b925050819055508173ffffffffffffffffffffffffffffffffffffffff167f2da466a7b24304f47e87fa2e1e5a81b9831ce54fec19055ce277ca2f39ba42c4826040516105d6919061099b565b60405180910390a25050565b600033905090565b8047101561062d576040517f08c379a00000000000000000000000000000000000000000000000000000000081526004016106249061095b565b60405180910390fd5b60008273ffffffffffffffffffffffffffffffffffffffff1682604051610653906108eb565b60006040518083038185875af1925050503d8060008114610690576040519150601f19603f3d011682016040523d82523d6000602084013e610695565b606091505b50509050806106d9576040517f08c379a00000000000000000000000000000000000000000000000000000000081526004016106d09061093b565b60405180910390fd5b505050565b60008060009054906101000a900473ffffffffffffffffffffffffffffffffffffffff169050816000806101000a81548173ffffffffffffffffffffffffffffffffffffffff021916908373ffffffffffffffffffffffffffffffffffffffff1602179055508173ffffffffffffffffffffffffffffffffffffffff168173ffffffffffffffffffffffffffffffffffffffff167f8be0079c531659141344cd1fd0a4f28419497f9722a3daafe3b4186f6b6457e060405160405180910390a35050565b6000813590506107b181610b98565b92915050565b6000813590506107c681610baf565b92915050565b6000602082840312156107de57600080fd5b60006107ec848285016107a2565b91505092915050565b60006020828403121561080757600080fd5b6000610815848285016107b7565b91505092915050565b61082781610a28565b82525050565b600061083a6026836109c1565b915061084582610aa5565b604082019050919050565b600061085d603a836109c1565b915061086882610af4565b604082019050919050565b6000610880601d836109c1565b915061088b82610b43565b602082019050919050565b60006108a36020836109c1565b91506108ae82610b6c565b602082019050919050565b60006108c66000836109b6565b91506108d182610b95565b600082019050919050565b6108e581610a6c565b82525050565b60006108f6826108b9565b9150819050919050565b6000602082019050610915600083018461081e565b92915050565b600060208201905081810360008301526109348161082d565b9050919050565b6000602082019050818103600083015261095481610850565b9050919050565b6000602082019050818103600083015261097481610873565b9050919050565b6000602082019050818103600083015261099481610896565b9050919050565b60006020820190506109b060008301846108dc565b92915050565b600081905092915050565b600082825260208201905092915050565b60006109dd82610a6c565b91506109e883610a6c565b9250827fffffffffffffffffffffffffffffffffffffffffffffffffffffffffffffffff03821115610a1d57610a1c610a76565b5b828201905092915050565b6000610a3382610a4c565b9050919050565b6000610a4582610a4c565b9050919050565b600073ffffffffffffffffffffffffffffffffffffffff82169050919050565b6000819050919050565b7f4e487b7100000000000000000000000000000000000000000000000000000000600052601160045260246000fd5b7f4f776e61626c653a206e6577206f776e657220697320746865207a65726f206160008201527f6464726573730000000000000000000000000000000000000000000000000000602082015250565b7f416464726573733a20756e61626c6520746f2073656e642076616c75652c207260008201527f6563697069656e74206d61792068617665207265766572746564000000000000602082015250565b7f416464726573733a20696e73756666696369656e742062616c616e6365000000600082015250565b7f4f776e61626c653a2063616c6c6572206973206e6f7420746865206f776e6572600082015250565b50565b610ba181610a28565b8114610bac57600080fd5b50565b610bb881610a3a565b8114610bc357600080fd5b5056fea2646970667358221220b2a6db4c00e57e7ef608d5e81a53c60e6688cd2b85172cc39bb6858c6c6988ec64736f6c63430008040033",
  "linkReferences": {},
  "deployedLinkReferences": {}
}