{
  "_format": "hh-sol-artifact-1",
  "contractName": "NFT",
  "sourceName": "contracts/MyNFT.sol",
  "abi": [
    {
      "inputs": [],
      "stateMutability": "nonpayable",
      "type": "constructor"
    },
    {
      "anonymous": false,
      "inputs": [
        {
          "indexed": true,
          "internalType": "address",
          "name": "owner",
          "type": "address"
        },
        {
          "indexed": true,
          "internalType": "address",
          "name": "approved",
          "type": "address"
        },
        {
          "indexed": true,
          "internalType": "uint256",
          "name": "tokenId",
          "type": "uint256"
        }
      ],
      "name": "Approval",
      "type": "event"
    },
    {
      "anonymous": false,
      "inputs": [
        {
          "indexed": true,
          "internalType": "address",
          "name": "owner",
          "type": "address"
        },
        {
          "indexed": true,
          "internalType": "address",
          "name": "operator",
          "type": "address"
        },
        {
          "indexed": false,
          "internalType": "bool",
          "name": "approved",
          "type": "bool"
        }
      ],
      "name": "ApprovalForAll",
      "type": "event"
    },
    {
      "anonymous": false,
      "inputs": [
        {
          "indexed": true,
          "internalType": "address",
          "name": "previousOwner",
          "type": "address"
        },
        {
          "indexed": true,
          "internalType": "address",
          "name": "newOwner",
          "type": "address"
        }
      ],
      "name": "OwnershipTransferred",
      "type": "event"
    },
    {
      "anonymous": false,
      "inputs": [
        {
          "indexed": true,
          "internalType": "address",
          "name": "from",
          "type": "address"
        },
        {
          "indexed": true,
          "internalType": "address",
          "name": "to",
          "type": "address"
        },
        {
          "indexed": true,
          "internalType": "uint256",
          "name": "tokenId",
          "type": "uint256"
        }
      ],
      "name": "Transfer",
      "type": "event"
    },
    {
      "inputs": [],
      "name": "MINT_PRICE",
      "outputs": [
        {
          "internalType": "uint256",
          "name": "",
          "type": "uint256"
        }
      ],
      "stateMutability": "view",
      "type": "function"
    },
    {
      "inputs": [],
      "name": "TOTAL_SUPPLY",
      "outputs": [
        {
          "internalType": "uint256",
          "name": "",
          "type": "uint256"
        }
      ],
      "stateMutability": "view",
      "type": "function"
    },
    {
      "inputs": [
        {
          "internalType": "address",
          "name": "to",
          "type": "address"
        },
        {
          "internalType": "uint256",
          "name": "tokenId",
          "type": "uint256"
        }
      ],
      "name": "approve",
      "outputs": [],
      "stateMutability": "nonpayable",
      "type": "function"
    },
    {
      "inputs": [
        {
          "internalType": "address",
          "name": "owner",
          "type": "address"
        }
      ],
      "name": "balanceOf",
      "outputs": [
        {
          "internalType": "uint256",
          "name": "",
          "type": "uint256"
        }
      ],
      "stateMutability": "view",
      "type": "function"
    },
    {
      "inputs": [],
      "name": "baseTokenURI",
      "outputs": [
        {
          "internalType": "string",
          "name": "",
          "type": "string"
        }
      ],
      "stateMutability": "view",
      "type": "function"
    },
    {
      "inputs": [
        {
          "internalType": "uint256",
          "name": "tokenId",
          "type": "uint256"
        }
      ],
      "name": "getApproved",
      "outputs": [
        {
          "internalType": "address",
          "name": "",
          "type": "address"
        }
      ],
      "stateMutability": "view",
      "type": "function"
    },
    {
      "inputs": [
        {
          "internalType": "address",
          "name": "owner",
          "type": "address"
        },
        {
          "internalType": "address",
          "name": "operator",
          "type": "address"
        }
      ],
      "name": "isApprovedForAll",
      "outputs": [
        {
          "internalType": "bool",
          "name": "",
          "type": "bool"
        }
      ],
      "stateMutability": "view",
      "type": "function"
    },
    {
      "inputs": [],
      "name": "name",
      "outputs": [
        {
          "internalType": "string",
          "name": "",
          "type": "string"
        }
      ],
      "stateMutability": "view",
      "type": "function"
    },
    {
      "inputs": [],
      "name": "owner",
      "outputs": [
        {
          "internalType": "address",
          "name": "",
          "type": "address"
        }
      ],
      "stateMutability": "view",
      "type": "function"
    },
    {
      "inputs": [
        {
          "internalType": "uint256",
          "name": "tokenId",
          "type": "uint256"
        }
      ],
      "name": "ownerOf",
      "outputs": [
        {
          "internalType": "address",
          "name": "",
          "type": "address"
        }
      ],
      "stateMutability": "view",
      "type": "function"
    },
    {
      "inputs": [
        {
          "internalType": "address",
          "name": "dest",
          "type": "address"
        }
      ],
      "name": "payments",
      "outputs": [
        {
          "internalType": "uint256",
          "name": "",
          "type": "uint256"
        }
      ],
      "stateMutability": "view",
      "type": "function"
    },
    {
      "inputs": [],
      "name": "renounceOwnership",
      "outputs": [],
      "stateMutability": "nonpayable",
      "type": "function"
    },
    {
      "inputs": [
        {
          "internalType": "address",
          "name": "to",
          "type": "address"
        },
        {
          "internalType": "string",
          "name": "uri",
          "type": "string"
        }
      ],
      "name": "safeMint",
      "outputs": [],
      "stateMutability": "payable",
      "type": "function"
    },
    {
      "inputs": [
        {
          "internalType": "address",
          "name": "from",
          "type": "address"
        },
        {
          "internalType": "address",
          "name": "to",
          "type": "address"
        },
        {
          "internalType": "uint256",
          "name": "tokenId",
          "type": "uint256"
        }
      ],
      "name": "safeTransferFrom",
      "outputs": [],
      "stateMutability": "nonpayable",
      "type": "function"
    },
    {
      "inputs": [
        {
          "internalType": "address",
          "name": "from",
          "type": "address"
        },
        {
          "internalType": "address",
          "name": "to",
          "type": "address"
        },
        {
          "internalType": "uint256",
          "name": "tokenId",
          "type": "uint256"
        },
        {
          "internalType": "bytes",
          "name": "_data",
          "type": "bytes"
        }
      ],
      "name": "safeTransferFrom",
      "outputs": [],
      "stateMutability": "nonpayable",
      "type": "function"
    },
    {
      "inputs": [
        {
          "internalType": "address",
          "name": "operator",
          "type": "address"
        },
        {
          "internalType": "bool",
          "name": "approved",
          "type": "bool"
        }
      ],
      "name": "setApprovalForAll",
      "outputs": [],
      "stateMutability": "nonpayable",
      "type": "function"
    },
    {
      "inputs": [
        {
          "internalType": "string",
          "name": "_baseTokenURI",
          "type": "string"
        }
      ],
      "name": "setBaseTokenURI",
      "outputs": [],
      "stateMutability": "nonpayable",
      "type": "function"
    },
    {
      "inputs": [
        {
          "internalType": "bytes4",
          "name": "interfaceId",
          "type": "bytes4"
        }
      ],
      "name": "supportsInterface",
      "outputs": [
        {
          "internalType": "bool",
          "name": "",
          "type": "bool"
        }
      ],
      "stateMutability": "view",
      "type": "function"
    },
    {
      "inputs": [],
      "name": "symbol",
      "outputs": [
        {
          "internalType": "string",
          "name": "",
          "type": "string"
        }
      ],
      "stateMutability": "view",
      "type": "function"
    },
    {
      "inputs": [
        {
          "internalType": "uint256",
          "name": "index",
          "type": "uint256"
        }
      ],
      "name": "tokenByIndex",
      "outputs": [
        {
          "internalType": "uint256",
          "name": "",
          "type": "uint256"
        }
      ],
      "stateMutability": "view",
      "type": "function"
    },
    {
      "inputs": [
        {
          "internalType": "address",
          "name": "owner",
          "type": "address"
        },
        {
          "internalType": "uint256",
          "name": "index",
          "type": "uint256"
        }
      ],
      "name": "tokenOfOwnerByIndex",
      "outputs": [
        {
          "internalType": "uint256",
          "name": "",
          "type": "uint256"
        }
      ],
      "stateMutability": "view",
      "type": "function"
    },
    {
      "inputs": [
        {
          "internalType": "uint256",
          "name": "tokenId",
          "type": "uint256"
        }
      ],
      "name": "tokenURI",
      "outputs": [
        {
          "internalType": "string",
          "name": "",
          "type": "string"
        }
      ],
      "stateMutability": "view",
      "type": "function"
    },
    {
      "inputs": [],
      "name": "totalSupply",
      "outputs": [
        {
          "internalType": "uint256",
          "name": "",
          "type": "uint256"
        }
      ],
      "stateMutability": "view",
      "type": "function"
    },
    {
      "inputs": [
        {
          "internalType": "address",
          "name": "from",
          "type": "address"
        },
        {
          "internalType": "address",
          "name": "to",
          "type": "address"
        },
        {
          "internalType": "uint256",
          "name": "tokenId",
          "type": "uint256"
        }
      ],
      "name": "transferFrom",
      "outputs": [],
      "stateMutability": "nonpayable",
      "type": "function"
    },
    {
      "inputs": [
        {
          "internalType": "address",
          "name": "newOwner",
          "type": "address"
        }
      ],
      "name": "transferOwnership",
      "outputs": [],
      "stateMutability": "nonpayable",
      "type": "function"
    },
    {
      "inputs": [
        {
          "internalType": "address payable",
          "name": "payee",
          "type": "address"
        }
      ],
      "name": "withdrawPayments",
      "outputs": [],
      "stateMutability": "nonpayable",
      "type": "function"
    }
  ],
  "bytecode": "0x60a06040523480156200001157600080fd5b506040518060400160405280600381526020017f4e465400000000000000000000000000000000000000000000000000000000008152506040518060400160405280600381526020017f564d53000000000000000000000000000000000000000000000000000000000081525081600090805190602001906200009692919062000230565b508060019080519060200190620000af92919062000230565b505050620000d2620000c66200016260201b60201c565b6200016a60201b60201c565b604051620000e090620002c1565b604051809103906000f080158015620000fd573d6000803e3d6000fd5b5073ffffffffffffffffffffffffffffffffffffffff1660808173ffffffffffffffffffffffffffffffffffffffff1660601b8152505060405180602001604052806000815250600d90805190602001906200015b92919062000230565b5062000353565b600033905090565b6000600b60009054906101000a900473ffffffffffffffffffffffffffffffffffffffff16905081600b60006101000a81548173ffffffffffffffffffffffffffffffffffffffff021916908373ffffffffffffffffffffffffffffffffffffffff1602179055508173ffffffffffffffffffffffffffffffffffffffff168173ffffffffffffffffffffffffffffffffffffffff167f8be0079c531659141344cd1fd0a4f28419497f9722a3daafe3b4186f6b6457e060405160405180910390a35050565b8280546200023e90620002ee565b90600052602060002090601f016020900481019282620002625760008555620002ae565b82601f106200027d57805160ff1916838001178555620002ae565b82800160010185558215620002ae579182015b82811115620002ad57825182559160200191906001019062000290565b5b509050620002bd9190620002cf565b5090565b610d0980620043fc83390190565b5b80821115620002ea576000816000905550600101620002d0565b5090565b600060028204905060018216806200030757607f821691505b602082108114156200031e576200031d62000324565b5b50919050565b7f4e487b7100000000000000000000000000000000000000000000000000000000600052602260045260246000fd5b60805160601c614083620003796000396000818161109201526117ba01526140836000f3fe6080604052600436106101815760003560e01c8063715018a6116100d1578063c002d23d1161008a578063d547cfb711610064578063d547cfb714610585578063e2982c21146105b0578063e985e9c5146105ed578063f2fde38b1461062a57610181565b8063c002d23d14610501578063c87b56dd1461052c578063d204c45e1461056957610181565b8063715018a6146104175780638da5cb5b1461042e578063902d55a51461045957806395d89b4114610484578063a22cb465146104af578063b88d4fde146104d857610181565b80632f745c591161013e57806342842e0e1161011857806342842e0e146103375780634f6ccce7146103605780636352211e1461039d57806370a08231146103da57610181565b80632f745c59146102a857806330176e13146102e557806331b3eb941461030e57610181565b806301ffc9a71461018657806306fdde03146101c3578063081812fc146101ee578063095ea7b31461022b57806318160ddd1461025457806323b872dd1461027f575b600080fd5b34801561019257600080fd5b506101ad60048036038101906101a89190612d53565b610653565b6040516101ba91906132bf565b60405180910390f35b3480156101cf57600080fd5b506101d8610665565b6040516101e591906132da565b60405180910390f35b3480156101fa57600080fd5b5061021560048036038101906102109190612de6565b6106f7565b604051610222919061323d565b60405180910390f35b34801561023757600080fd5b50610252600480360381019061024d9190612d17565b61077c565b005b34801561026057600080fd5b50610269610894565b60405161027691906135bc565b60405180910390f35b34801561028b57600080fd5b506102a660048036038101906102a19190612bbd565b6108a1565b005b3480156102b457600080fd5b506102cf60048036038101906102ca9190612d17565b610901565b6040516102dc91906135bc565b60405180910390f35b3480156102f157600080fd5b5061030c60048036038101906103079190612da5565b6109a6565b005b34801561031a57600080fd5b5061033560048036038101906103309190612b58565b610a3c565b005b34801561034357600080fd5b5061035e60048036038101906103599190612bbd565b610ac4565b005b34801561036c57600080fd5b5061038760048036038101906103829190612de6565b610ae4565b60405161039491906135bc565b60405180910390f35b3480156103a957600080fd5b506103c460048036038101906103bf9190612de6565b610b7b565b6040516103d1919061323d565b60405180910390f35b3480156103e657600080fd5b5061040160048036038101906103fc9190612b2f565b610c2d565b60405161040e91906135bc565b60405180910390f35b34801561042357600080fd5b5061042c610ce5565b005b34801561043a57600080fd5b50610443610d6d565b604051610450919061323d565b60405180910390f35b34801561046557600080fd5b5061046e610d97565b60405161047b91906135bc565b60405180910390f35b34801561049057600080fd5b50610499610d9d565b6040516104a691906132da565b60405180910390f35b3480156104bb57600080fd5b506104d660048036038101906104d19190612c87565b610e2f565b005b3480156104e457600080fd5b506104ff60048036038101906104fa9190612c0c565b610e45565b005b34801561050d57600080fd5b50610516610ea7565b60405161052391906135bc565b60405180910390f35b34801561053857600080fd5b50610553600480360381019061054e9190612de6565b610eb3565b60405161056091906132da565b60405180910390f35b610583600480360381019061057e9190612cc3565b610ec5565b005b34801561059157600080fd5b5061059a611000565b6040516105a791906132da565b60405180910390f35b3480156105bc57600080fd5b506105d760048036038101906105d29190612b2f565b61108e565b6040516105e491906135bc565b60405180910390f35b3480156105f957600080fd5b50610614600480360381019061060f9190612b81565b611140565b60405161062191906132bf565b60405180910390f35b34801561063657600080fd5b50610651600480360381019061064c9190612b2f565b6111d4565b005b600061065e826112cc565b9050919050565b60606000805461067490613824565b80601f01602080910402602001604051908101604052809291908181526020018280546106a090613824565b80156106ed5780601f106106c2576101008083540402835291602001916106ed565b820191906000526020600020905b8154815290600101906020018083116106d057829003601f168201915b5050505050905090565b600061070282611346565b610741576040517f08c379a0000000000000000000000000000000000000000000000000000000008152600401610738906134dc565b60405180910390fd5b6004600083815260200190815260200160002060009054906101000a900473ffffffffffffffffffffffffffffffffffffffff169050919050565b600061078782610b7b565b90508073ffffffffffffffffffffffffffffffffffffffff168373ffffffffffffffffffffffffffffffffffffffff1614156107f8576040517f08c379a00000000000000000000000000000000000000000000000000000000081526004016107ef9061353c565b60405180910390fd5b8073ffffffffffffffffffffffffffffffffffffffff166108176113b2565b73ffffffffffffffffffffffffffffffffffffffff1614806108465750610845816108406113b2565b611140565b5b610885576040517f08c379a000000000000000000000000000000000000000000000000000000000815260040161087c9061341c565b60405180910390fd5b61088f83836113ba565b505050565b6000600880549050905090565b6108b26108ac6113b2565b82611473565b6108f1576040517f08c379a00000000000000000000000000000000000000000000000000000000081526004016108e89061355c565b60405180910390fd5b6108fc838383611551565b505050565b600061090c83610c2d565b821061094d576040517f08c379a0000000000000000000000000000000000000000000000000000000008152600401610944906132fc565b60405180910390fd5b600660008473ffffffffffffffffffffffffffffffffffffffff1673ffffffffffffffffffffffffffffffffffffffff168152602001908152602001600020600083815260200190815260200160002054905092915050565b6109ae6113b2565b73ffffffffffffffffffffffffffffffffffffffff166109cc610d6d565b73ffffffffffffffffffffffffffffffffffffffff1614610a22576040517f08c379a0000000000000000000000000000000000000000000000000000000008152600401610a19906134fc565b60405180910390fd5b80600d9080519060200190610a38929190612929565b5050565b610a446113b2565b73ffffffffffffffffffffffffffffffffffffffff16610a62610d6d565b73ffffffffffffffffffffffffffffffffffffffff1614610ab8576040517f08c379a0000000000000000000000000000000000000000000000000000000008152600401610aaf906134fc565b60405180910390fd5b610ac1816117b8565b50565b610adf83838360405180602001604052806000815250610e45565b505050565b6000610aee610894565b8210610b2f576040517f08c379a0000000000000000000000000000000000000000000000000000000008152600401610b269061359c565b60405180910390fd5b60088281548110610b69577f4e487b7100000000000000000000000000000000000000000000000000000000600052603260045260246000fd5b90600052602060002001549050919050565b6000806002600084815260200190815260200160002060009054906101000a900473ffffffffffffffffffffffffffffffffffffffff169050600073ffffffffffffffffffffffffffffffffffffffff168173ffffffffffffffffffffffffffffffffffffffff161415610c24576040517f08c379a0000000000000000000000000000000000000000000000000000000008152600401610c1b9061345c565b60405180910390fd5b80915050919050565b60008073ffffffffffffffffffffffffffffffffffffffff168273ffffffffffffffffffffffffffffffffffffffff161415610c9e576040517f08c379a0000000000000000000000000000000000000000000000000000000008152600401610c959061343c565b60405180910390fd5b600360008373ffffffffffffffffffffffffffffffffffffffff1673ffffffffffffffffffffffffffffffffffffffff168152602001908152602001600020549050919050565b610ced6113b2565b73ffffffffffffffffffffffffffffffffffffffff16610d0b610d6d565b73ffffffffffffffffffffffffffffffffffffffff1614610d61576040517f08c379a0000000000000000000000000000000000000000000000000000000008152600401610d58906134fc565b60405180910390fd5b610d6b6000611846565b565b6000600b60009054906101000a900473ffffffffffffffffffffffffffffffffffffffff16905090565b61271081565b606060018054610dac90613824565b80601f0160208091040260200160405190810160405280929190818152602001828054610dd890613824565b8015610e255780601f10610dfa57610100808354040283529160200191610e25565b820191906000526020600020905b815481529060010190602001808311610e0857829003601f168201915b5050505050905090565b610e41610e3a6113b2565b838361190c565b5050565b610e56610e506113b2565b83611473565b610e95576040517f08c379a0000000000000000000000000000000000000000000000000000000008152600401610e8c9061355c565b60405180910390fd5b610ea184848484611a79565b50505050565b67011c37937e08000081565b6060610ebe82611ad5565b9050919050565b610ecd6113b2565b73ffffffffffffffffffffffffffffffffffffffff16610eeb610d6d565b73ffffffffffffffffffffffffffffffffffffffff1614610f41576040517f08c379a0000000000000000000000000000000000000000000000000000000008152600401610f38906134fc565b60405180910390fd5b6000610f4d600c611c27565b90506127108110610f93576040517f08c379a0000000000000000000000000000000000000000000000000000000008152600401610f8a9061357c565b60405180910390fd5b67011c37937e0800003414610fdd576040517f08c379a0000000000000000000000000000000000000000000000000000000008152600401610fd4906133dc565b60405180910390fd5b610fe7600c611c35565b610ff18382611c4b565b610ffb8183611c69565b505050565b600d805461100d90613824565b80601f016020809104026020016040519081016040528092919081815260200182805461103990613824565b80156110865780601f1061105b57610100808354040283529160200191611086565b820191906000526020600020905b81548152906001019060200180831161106957829003601f168201915b505050505081565b60007f000000000000000000000000000000000000000000000000000000000000000073ffffffffffffffffffffffffffffffffffffffff1663e3a9db1a836040518263ffffffff1660e01b81526004016110e9919061323d565b60206040518083038186803b15801561110157600080fd5b505afa158015611115573d6000803e3d6000fd5b505050506040513d601f19601f820116820180604052508101906111399190612e0f565b9050919050565b6000600560008473ffffffffffffffffffffffffffffffffffffffff1673ffffffffffffffffffffffffffffffffffffffff16815260200190815260200160002060008373ffffffffffffffffffffffffffffffffffffffff1673ffffffffffffffffffffffffffffffffffffffff16815260200190815260200160002060009054906101000a900460ff16905092915050565b6111dc6113b2565b73ffffffffffffffffffffffffffffffffffffffff166111fa610d6d565b73ffffffffffffffffffffffffffffffffffffffff1614611250576040517f08c379a0000000000000000000000000000000000000000000000000000000008152600401611247906134fc565b60405180910390fd5b600073ffffffffffffffffffffffffffffffffffffffff168173ffffffffffffffffffffffffffffffffffffffff1614156112c0576040517f08c379a00000000000000000000000000000000000000000000000000000000081526004016112b79061333c565b60405180910390fd5b6112c981611846565b50565b60007f780e9d63000000000000000000000000000000000000000000000000000000007bffffffffffffffffffffffffffffffffffffffffffffffffffffffff1916827bffffffffffffffffffffffffffffffffffffffffffffffffffffffff1916148061133f575061133e82611cdd565b5b9050919050565b60008073ffffffffffffffffffffffffffffffffffffffff166002600084815260200190815260200160002060009054906101000a900473ffffffffffffffffffffffffffffffffffffffff1673ffffffffffffffffffffffffffffffffffffffff1614159050919050565b600033905090565b816004600083815260200190815260200160002060006101000a81548173ffffffffffffffffffffffffffffffffffffffff021916908373ffffffffffffffffffffffffffffffffffffffff160217905550808273ffffffffffffffffffffffffffffffffffffffff1661142d83610b7b565b73ffffffffffffffffffffffffffffffffffffffff167f8c5be1e5ebec7d5bd14f71427d1e84f3dd0314c0f7b2291e5b200ac8c7c3b92560405160405180910390a45050565b600061147e82611346565b6114bd576040517f08c379a00000000000000000000000000000000000000000000000000000000081526004016114b4906133fc565b60405180910390fd5b60006114c883610b7b565b90508073ffffffffffffffffffffffffffffffffffffffff168473ffffffffffffffffffffffffffffffffffffffff16148061150a57506115098185611140565b5b8061154857508373ffffffffffffffffffffffffffffffffffffffff16611530846106f7565b73ffffffffffffffffffffffffffffffffffffffff16145b91505092915050565b8273ffffffffffffffffffffffffffffffffffffffff1661157182610b7b565b73ffffffffffffffffffffffffffffffffffffffff16146115c7576040517f08c379a00000000000000000000000000000000000000000000000000000000081526004016115be9061335c565b60405180910390fd5b600073ffffffffffffffffffffffffffffffffffffffff168273ffffffffffffffffffffffffffffffffffffffff161415611637576040517f08c379a000000000000000000000000000000000000000000000000000000000815260040161162e9061339c565b60405180910390fd5b611642838383611dbf565b61164d6000826113ba565b6001600360008573ffffffffffffffffffffffffffffffffffffffff1673ffffffffffffffffffffffffffffffffffffffff168152602001908152602001600020600082825461169d9190613728565b925050819055506001600360008473ffffffffffffffffffffffffffffffffffffffff1673ffffffffffffffffffffffffffffffffffffffff16815260200190815260200160002060008282546116f491906136a1565b92505081905550816002600083815260200190815260200160002060006101000a81548173ffffffffffffffffffffffffffffffffffffffff021916908373ffffffffffffffffffffffffffffffffffffffff160217905550808273ffffffffffffffffffffffffffffffffffffffff168473ffffffffffffffffffffffffffffffffffffffff167fddf252ad1be2c89b69c2b068fc378daa952ba7f163c4a11628f55a4df523b3ef60405160405180910390a46117b3838383611dcf565b505050565b7f000000000000000000000000000000000000000000000000000000000000000073ffffffffffffffffffffffffffffffffffffffff166351cff8d9826040518263ffffffff1660e01b81526004016118119190613258565b600060405180830381600087803b15801561182b57600080fd5b505af115801561183f573d6000803e3d6000fd5b5050505050565b6000600b60009054906101000a900473ffffffffffffffffffffffffffffffffffffffff16905081600b60006101000a81548173ffffffffffffffffffffffffffffffffffffffff021916908373ffffffffffffffffffffffffffffffffffffffff1602179055508173ffffffffffffffffffffffffffffffffffffffff168173ffffffffffffffffffffffffffffffffffffffff167f8be0079c531659141344cd1fd0a4f28419497f9722a3daafe3b4186f6b6457e060405160405180910390a35050565b8173ffffffffffffffffffffffffffffffffffffffff168373ffffffffffffffffffffffffffffffffffffffff16141561197b576040517f08c379a0000000000000000000000000000000000000000000000000000000008152600401611972906133bc565b60405180910390fd5b80600560008573ffffffffffffffffffffffffffffffffffffffff1673ffffffffffffffffffffffffffffffffffffffff16815260200190815260200160002060008473ffffffffffffffffffffffffffffffffffffffff1673ffffffffffffffffffffffffffffffffffffffff16815260200190815260200160002060006101000a81548160ff0219169083151502179055508173ffffffffffffffffffffffffffffffffffffffff168373ffffffffffffffffffffffffffffffffffffffff167f17307eab39ab6107e8899845ad3d59bd9653f200f220920489ca2b5937696c3183604051611a6c91906132bf565b60405180910390a3505050565b611a84848484611551565b611a9084848484611dd4565b611acf576040517f08c379a0000000000000000000000000000000000000000000000000000000008152600401611ac69061331c565b60405180910390fd5b50505050565b6060611ae082611346565b611b1f576040517f08c379a0000000000000000000000000000000000000000000000000000000008152600401611b16906134bc565b60405180910390fd5b6000600a60008481526020019081526020016000208054611b3f90613824565b80601f0160208091040260200160405190810160405280929190818152602001828054611b6b90613824565b8015611bb85780601f10611b8d57610100808354040283529160200191611bb8565b820191906000526020600020905b815481529060010190602001808311611b9b57829003601f168201915b505050505090506000611bc9611f6b565b9050600081511415611bdf578192505050611c22565b600082511115611c14578082604051602001611bfc929190613219565b60405160208183030381529060405292505050611c22565b611c1d84611f82565b925050505b919050565b600081600001549050919050565b6001816000016000828254019250508190555050565b611c65828260405180602001604052806000815250612029565b5050565b611c7282611346565b611cb1576040517f08c379a0000000000000000000000000000000000000000000000000000000008152600401611ca89061347c565b60405180910390fd5b80600a60008481526020019081526020016000209080519060200190611cd8929190612929565b505050565b60007f80ac58cd000000000000000000000000000000000000000000000000000000007bffffffffffffffffffffffffffffffffffffffffffffffffffffffff1916827bffffffffffffffffffffffffffffffffffffffffffffffffffffffff19161480611da857507f5b5e139f000000000000000000000000000000000000000000000000000000007bffffffffffffffffffffffffffffffffffffffffffffffffffffffff1916827bffffffffffffffffffffffffffffffffffffffffffffffffffffffff1916145b80611db85750611db782612084565b5b9050919050565b611dca8383836120ee565b505050565b505050565b6000611df58473ffffffffffffffffffffffffffffffffffffffff16612202565b15611f5e578373ffffffffffffffffffffffffffffffffffffffff1663150b7a02611e1e6113b2565b8786866040518563ffffffff1660e01b8152600401611e409493929190613273565b602060405180830381600087803b158015611e5a57600080fd5b505af1925050508015611e8b57506040513d601f19601f82011682018060405250810190611e889190612d7c565b60015b611f0e573d8060008114611ebb576040519150601f19603f3d011682016040523d82523d6000602084013e611ec0565b606091505b50600081511415611f06576040517f08c379a0000000000000000000000000000000000000000000000000000000008152600401611efd9061331c565b60405180910390fd5b805181602001fd5b63150b7a0260e01b7bffffffffffffffffffffffffffffffffffffffffffffffffffffffff1916817bffffffffffffffffffffffffffffffffffffffffffffffffffffffff191614915050611f63565b600190505b949350505050565b606060405180602001604052806000815250905090565b6060611f8d82611346565b611fcc576040517f08c379a0000000000000000000000000000000000000000000000000000000008152600401611fc39061351c565b60405180910390fd5b6000611fd6611f6b565b90506000815111611ff65760405180602001604052806000815250612021565b8061200084612225565b604051602001612011929190613219565b6040516020818303038152906040525b915050919050565b61203383836123d2565b6120406000848484611dd4565b61207f576040517f08c379a00000000000000000000000000000000000000000000000000000000081526004016120769061331c565b60405180910390fd5b505050565b60007f01ffc9a7000000000000000000000000000000000000000000000000000000007bffffffffffffffffffffffffffffffffffffffffffffffffffffffff1916827bffffffffffffffffffffffffffffffffffffffffffffffffffffffff1916149050919050565b6120f98383836125ac565b600073ffffffffffffffffffffffffffffffffffffffff168373ffffffffffffffffffffffffffffffffffffffff16141561213c57612137816125b1565b61217b565b8173ffffffffffffffffffffffffffffffffffffffff168373ffffffffffffffffffffffffffffffffffffffff161461217a5761217983826125fa565b5b5b600073ffffffffffffffffffffffffffffffffffffffff168273ffffffffffffffffffffffffffffffffffffffff1614156121be576121b981612767565b6121fd565b8273ffffffffffffffffffffffffffffffffffffffff168273ffffffffffffffffffffffffffffffffffffffff16146121fc576121fb82826128aa565b5b5b505050565b6000808273ffffffffffffffffffffffffffffffffffffffff163b119050919050565b6060600082141561226d576040518060400160405280600181526020017f300000000000000000000000000000000000000000000000000000000000000081525090506123cd565b600082905060005b6000821461229f57808061228890613887565b915050600a8261229891906136f7565b9150612275565b60008167ffffffffffffffff8111156122e1577f4e487b7100000000000000000000000000000000000000000000000000000000600052604160045260246000fd5b6040519080825280601f01601f1916602001820160405280156123135781602001600182028036833780820191505090505b5090505b600085146123c65760018261232c9190613728565b9150600a8561233b91906138d0565b603061234791906136a1565b60f81b818381518110612383577f4e487b7100000000000000000000000000000000000000000000000000000000600052603260045260246000fd5b60200101907effffffffffffffffffffffffffffffffffffffffffffffffffffffffffffff1916908160001a905350600a856123bf91906136f7565b9450612317565b8093505050505b919050565b600073ffffffffffffffffffffffffffffffffffffffff168273ffffffffffffffffffffffffffffffffffffffff161415612442576040517f08c379a00000000000000000000000000000000000000000000000000000000081526004016124399061349c565b60405180910390fd5b61244b81611346565b1561248b576040517f08c379a00000000000000000000000000000000000000000000000000000000081526004016124829061337c565b60405180910390fd5b61249760008383611dbf565b6001600360008473ffffffffffffffffffffffffffffffffffffffff1673ffffffffffffffffffffffffffffffffffffffff16815260200190815260200160002060008282546124e791906136a1565b92505081905550816002600083815260200190815260200160002060006101000a81548173ffffffffffffffffffffffffffffffffffffffff021916908373ffffffffffffffffffffffffffffffffffffffff160217905550808273ffffffffffffffffffffffffffffffffffffffff16600073ffffffffffffffffffffffffffffffffffffffff167fddf252ad1be2c89b69c2b068fc378daa952ba7f163c4a11628f55a4df523b3ef60405160405180910390a46125a860008383611dcf565b5050565b505050565b6008805490506009600083815260200190815260200160002081905550600881908060018154018082558091505060019003906000526020600020016000909190919091505550565b6000600161260784610c2d565b6126119190613728565b90506000600760008481526020019081526020016000205490508181146126f6576000600660008673ffffffffffffffffffffffffffffffffffffffff1673ffffffffffffffffffffffffffffffffffffffff168152602001908152602001600020600084815260200190815260200160002054905080600660008773ffffffffffffffffffffffffffffffffffffffff1673ffffffffffffffffffffffffffffffffffffffff168152602001908152602001600020600084815260200190815260200160002081905550816007600083815260200190815260200160002081905550505b6007600084815260200190815260200160002060009055600660008573ffffffffffffffffffffffffffffffffffffffff1673ffffffffffffffffffffffffffffffffffffffff16815260200190815260200160002060008381526020019081526020016000206000905550505050565b6000600160088054905061277b9190613728565b90506000600960008481526020019081526020016000205490506000600883815481106127d1577f4e487b7100000000000000000000000000000000000000000000000000000000600052603260045260246000fd5b906000526020600020015490508060088381548110612819577f4e487b7100000000000000000000000000000000000000000000000000000000600052603260045260246000fd5b90600052602060002001819055508160096000838152602001908152602001600020819055506009600085815260200190815260200160002060009055600880548061288e577f4e487b7100000000000000000000000000000000000000000000000000000000600052603160045260246000fd5b6001900381819060005260206000200160009055905550505050565b60006128b583610c2d565b905081600660008573ffffffffffffffffffffffffffffffffffffffff1673ffffffffffffffffffffffffffffffffffffffff168152602001908152602001600020600083815260200190815260200160002081905550806007600084815260200190815260200160002081905550505050565b82805461293590613824565b90600052602060002090601f016020900481019282612957576000855561299e565b82601f1061297057805160ff191683800117855561299e565b8280016001018555821561299e579182015b8281111561299d578251825591602001919060010190612982565b5b5090506129ab91906129af565b5090565b5b808211156129c85760008160009055506001016129b0565b5090565b60006129df6129da846135fc565b6135d7565b9050828152602081018484840111156129f757600080fd5b612a028482856137e2565b509392505050565b6000612a1d612a188461362d565b6135d7565b905082815260208101848484011115612a3557600080fd5b612a408482856137e2565b509392505050565b600081359050612a5781613fda565b92915050565b600081359050612a6c81613ff1565b92915050565b600081359050612a8181614008565b92915050565b600081359050612a968161401f565b92915050565b600081519050612aab8161401f565b92915050565b600082601f830112612ac257600080fd5b8135612ad28482602086016129cc565b91505092915050565b600082601f830112612aec57600080fd5b8135612afc848260208601612a0a565b91505092915050565b600081359050612b1481614036565b92915050565b600081519050612b2981614036565b92915050565b600060208284031215612b4157600080fd5b6000612b4f84828501612a48565b91505092915050565b600060208284031215612b6a57600080fd5b6000612b7884828501612a5d565b91505092915050565b60008060408385031215612b9457600080fd5b6000612ba285828601612a48565b9250506020612bb385828601612a48565b9150509250929050565b600080600060608486031215612bd257600080fd5b6000612be086828701612a48565b9350506020612bf186828701612a48565b9250506040612c0286828701612b05565b9150509250925092565b60008060008060808587031215612c2257600080fd5b6000612c3087828801612a48565b9450506020612c4187828801612a48565b9350506040612c5287828801612b05565b925050606085013567ffffffffffffffff811115612c6f57600080fd5b612c7b87828801612ab1565b91505092959194509250565b60008060408385031215612c9a57600080fd5b6000612ca885828601612a48565b9250506020612cb985828601612a72565b9150509250929050565b60008060408385031215612cd657600080fd5b6000612ce485828601612a48565b925050602083013567ffffffffffffffff811115612d0157600080fd5b612d0d85828601612adb565b9150509250929050565b60008060408385031215612d2a57600080fd5b6000612d3885828601612a48565b9250506020612d4985828601612b05565b9150509250929050565b600060208284031215612d6557600080fd5b6000612d7384828501612a87565b91505092915050565b600060208284031215612d8e57600080fd5b6000612d9c84828501612a9c565b91505092915050565b600060208284031215612db757600080fd5b600082013567ffffffffffffffff811115612dd157600080fd5b612ddd84828501612adb565b91505092915050565b600060208284031215612df857600080fd5b6000612e0684828501612b05565b91505092915050565b600060208284031215612e2157600080fd5b6000612e2f84828501612b1a565b91505092915050565b612e418161376e565b82525050565b612e508161375c565b82525050565b612e5f81613780565b82525050565b6000612e708261365e565b612e7a8185613674565b9350612e8a8185602086016137f1565b612e93816139bd565b840191505092915050565b6000612ea982613669565b612eb38185613685565b9350612ec38185602086016137f1565b612ecc816139bd565b840191505092915050565b6000612ee282613669565b612eec8185613696565b9350612efc8185602086016137f1565b80840191505092915050565b6000612f15602b83613685565b9150612f20826139ce565b604082019050919050565b6000612f38603283613685565b9150612f4382613a1d565b604082019050919050565b6000612f5b602683613685565b9150612f6682613a6c565b604082019050919050565b6000612f7e602583613685565b9150612f8982613abb565b604082019050919050565b6000612fa1601c83613685565b9150612fac82613b0a565b602082019050919050565b6000612fc4602483613685565b9150612fcf82613b33565b604082019050919050565b6000612fe7601983613685565b9150612ff282613b82565b602082019050919050565b600061300a602e83613685565b915061301582613bab565b604082019050919050565b600061302d602c83613685565b915061303882613bfa565b604082019050919050565b6000613050603883613685565b915061305b82613c49565b604082019050919050565b6000613073602a83613685565b915061307e82613c98565b604082019050919050565b6000613096602983613685565b91506130a182613ce7565b604082019050919050565b60006130b9602e83613685565b91506130c482613d36565b604082019050919050565b60006130dc602083613685565b91506130e782613d85565b602082019050919050565b60006130ff603183613685565b915061310a82613dae565b604082019050919050565b6000613122602c83613685565b915061312d82613dfd565b604082019050919050565b6000613145602083613685565b915061315082613e4c565b602082019050919050565b6000613168602f83613685565b915061317382613e75565b604082019050919050565b600061318b602183613685565b915061319682613ec4565b604082019050919050565b60006131ae603183613685565b91506131b982613f13565b604082019050919050565b60006131d1601283613685565b91506131dc82613f62565b602082019050919050565b60006131f4602c83613685565b91506131ff82613f8b565b604082019050919050565b613213816137d8565b82525050565b60006132258285612ed7565b91506132318284612ed7565b91508190509392505050565b60006020820190506132526000830184612e47565b92915050565b600060208201905061326d6000830184612e38565b92915050565b60006080820190506132886000830187612e47565b6132956020830186612e47565b6132a2604083018561320a565b81810360608301526132b48184612e65565b905095945050505050565b60006020820190506132d46000830184612e56565b92915050565b600060208201905081810360008301526132f48184612e9e565b905092915050565b6000602082019050818103600083015261331581612f08565b9050919050565b6000602082019050818103600083015261333581612f2b565b9050919050565b6000602082019050818103600083015261335581612f4e565b9050919050565b6000602082019050818103600083015261337581612f71565b9050919050565b6000602082019050818103600083015261339581612f94565b9050919050565b600060208201905081810360008301526133b581612fb7565b9050919050565b600060208201905081810360008301526133d581612fda565b9050919050565b600060208201905081810360008301526133f581612ffd565b9050919050565b6000602082019050818103600083015261341581613020565b9050919050565b6000602082019050818103600083015261343581613043565b9050919050565b6000602082019050818103600083015261345581613066565b9050919050565b6000602082019050818103600083015261347581613089565b9050919050565b60006020820190508181036000830152613495816130ac565b9050919050565b600060208201905081810360008301526134b5816130cf565b9050919050565b600060208201905081810360008301526134d5816130f2565b9050919050565b600060208201905081810360008301526134f581613115565b9050919050565b6000602082019050818103600083015261351581613138565b9050919050565b600060208201905081810360008301526135358161315b565b9050919050565b600060208201905081810360008301526135558161317e565b9050919050565b60006020820190508181036000830152613575816131a1565b9050919050565b60006020820190508181036000830152613595816131c4565b9050919050565b600060208201905081810360008301526135b5816131e7565b9050919050565b60006020820190506135d1600083018461320a565b92915050565b60006135e16135f2565b90506135ed8282613856565b919050565b6000604051905090565b600067ffffffffffffffff8211156136175761361661398e565b5b613620826139bd565b9050602081019050919050565b600067ffffffffffffffff8211156136485761364761398e565b5b613651826139bd565b9050602081019050919050565b600081519050919050565b600081519050919050565b600082825260208201905092915050565b600082825260208201905092915050565b600081905092915050565b60006136ac826137d8565b91506136b7836137d8565b9250827fffffffffffffffffffffffffffffffffffffffffffffffffffffffffffffffff038211156136ec576136eb613901565b5b828201905092915050565b6000613702826137d8565b915061370d836137d8565b92508261371d5761371c613930565b5b828204905092915050565b6000613733826137d8565b915061373e836137d8565b92508282101561375157613750613901565b5b828203905092915050565b6000613767826137b8565b9050919050565b6000613779826137b8565b9050919050565b60008115159050919050565b60007fffffffff0000000000000000000000000000000000000000000000000000000082169050919050565b600073ffffffffffffffffffffffffffffffffffffffff82169050919050565b6000819050919050565b82818337600083830152505050565b60005b8381101561380f5780820151818401526020810190506137f4565b8381111561381e576000848401525b50505050565b6000600282049050600182168061383c57607f821691505b602082108114156138505761384f61395f565b5b50919050565b61385f826139bd565b810181811067ffffffffffffffff8211171561387e5761387d61398e565b5b80604052505050565b6000613892826137d8565b91507fffffffffffffffffffffffffffffffffffffffffffffffffffffffffffffffff8214156138c5576138c4613901565b5b600182019050919050565b60006138db826137d8565b91506138e6836137d8565b9250826138f6576138f5613930565b5b828206905092915050565b7f4e487b7100000000000000000000000000000000000000000000000000000000600052601160045260246000fd5b7f4e487b7100000000000000000000000000000000000000000000000000000000600052601260045260246000fd5b7f4e487b7100000000000000000000000000000000000000000000000000000000600052602260045260246000fd5b7f4e487b7100000000000000000000000000000000000000000000000000000000600052604160045260246000fd5b6000601f19601f8301169050919050565b7f455243373231456e756d657261626c653a206f776e657220696e646578206f7560008201527f74206f6620626f756e6473000000000000000000000000000000000000000000602082015250565b7f4552433732313a207472616e7366657220746f206e6f6e20455243373231526560008201527f63656976657220696d706c656d656e7465720000000000000000000000000000602082015250565b7f4f776e61626c653a206e6577206f776e657220697320746865207a65726f206160008201527f6464726573730000000000000000000000000000000000000000000000000000602082015250565b7f4552433732313a207472616e736665722066726f6d20696e636f72726563742060008201527f6f776e6572000000000000000000000000000000000000000000000000000000602082015250565b7f4552433732313a20746f6b656e20616c7265616479206d696e74656400000000600082015250565b7f4552433732313a207472616e7366657220746f20746865207a65726f2061646460008201527f7265737300000000000000000000000000000000000000000000000000000000602082015250565b7f4552433732313a20617070726f766520746f2063616c6c657200000000000000600082015250565b7f5472616e73616374696f6e2076616c756520646964206e6f7420657175616c2060008201527f746865206d696e74207072696365000000000000000000000000000000000000602082015250565b7f4552433732313a206f70657261746f7220717565727920666f72206e6f6e657860008201527f697374656e7420746f6b656e0000000000000000000000000000000000000000602082015250565b7f4552433732313a20617070726f76652063616c6c6572206973206e6f74206f7760008201527f6e6572206e6f7220617070726f76656420666f7220616c6c0000000000000000602082015250565b7f4552433732313a2062616c616e636520717565727920666f7220746865207a6560008201527f726f206164647265737300000000000000000000000000000000000000000000602082015250565b7f4552433732313a206f776e657220717565727920666f72206e6f6e657869737460008201527f656e7420746f6b656e0000000000000000000000000000000000000000000000602082015250565b7f45524337323155524953746f726167653a2055524920736574206f66206e6f6e60008201527f6578697374656e7420746f6b656e000000000000000000000000000000000000602082015250565b7f4552433732313a206d696e7420746f20746865207a65726f2061646472657373600082015250565b7f45524337323155524953746f726167653a2055524920717565727920666f722060008201527f6e6f6e6578697374656e7420746f6b656e000000000000000000000000000000602082015250565b7f4552433732313a20617070726f76656420717565727920666f72206e6f6e657860008201527f697374656e7420746f6b656e0000000000000000000000000000000000000000602082015250565b7f4f776e61626c653a2063616c6c6572206973206e6f7420746865206f776e6572600082015250565b7f4552433732314d657461646174613a2055524920717565727920666f72206e6f60008201527f6e6578697374656e7420746f6b656e0000000000000000000000000000000000602082015250565b7f4552433732313a20617070726f76616c20746f2063757272656e74206f776e6560008201527f7200000000000000000000000000000000000000000000000000000000000000602082015250565b7f4552433732313a207472616e736665722063616c6c6572206973206e6f74206f60008201527f776e6572206e6f7220617070726f766564000000000000000000000000000000602082015250565b7f4d617820737570706c7920726561636865640000000000000000000000000000600082015250565b7f455243373231456e756d657261626c653a20676c6f62616c20696e646578206f60008201527f7574206f6620626f756e64730000000000000000000000000000000000000000602082015250565b613fe38161375c565b8114613fee57600080fd5b50565b613ffa8161376e565b811461400557600080fd5b50565b61401181613780565b811461401c57600080fd5b50565b6140288161378c565b811461403357600080fd5b50565b61403f816137d8565b811461404a57600080fd5b5056fea2646970667358221220408b3348e6c45e3645279564f09ca21e7a814fade14d250e80a818f8185ab08f64736f6c63430008040033608060405234801561001057600080fd5b5061002d61002261003260201b60201c565b61003a60201b60201c565b6100fe565b600033905090565b60008060009054906101000a900473ffffffffffffffffffffffffffffffffffffffff169050816000806101000a81548173ffffffffffffffffffffffffffffffffffffffff021916908373ffffffffffffffffffffffffffffffffffffffff1602179055508173ffffffffffffffffffffffffffffffffffffffff168173ffffffffffffffffffffffffffffffffffffffff167f8be0079c531659141344cd1fd0a4f28419497f9722a3daafe3b4186f6b6457e060405160405180910390a35050565b610bfc8061010d6000396000f3fe6080604052600436106100555760003560e01c806351cff8d91461005a578063715018a6146100835780638da5cb5b1461009a578063e3a9db1a146100c5578063f2fde38b14610102578063f340fa011461012b575b600080fd5b34801561006657600080fd5b50610081600480360381019061007c91906107f5565b610147565b005b34801561008f57600080fd5b506100986102c7565b005b3480156100a657600080fd5b506100af61034f565b6040516100bc9190610900565b60405180910390f35b3480156100d157600080fd5b506100ec60048036038101906100e791906107cc565b610378565b6040516100f9919061099b565b60405180910390f35b34801561010e57600080fd5b50610129600480360381019061012491906107cc565b6103c1565b005b610145600480360381019061014091906107cc565b6104b9565b005b61014f6105e2565b73ffffffffffffffffffffffffffffffffffffffff1661016d61034f565b73ffffffffffffffffffffffffffffffffffffffff16146101c3576040517f08c379a00000000000000000000000000000000000000000000000000000000081526004016101ba9061097b565b60405180910390fd5b6000600160008373ffffffffffffffffffffffffffffffffffffffff1673ffffffffffffffffffffffffffffffffffffffff1681526020019081526020016000205490506000600160008473ffffffffffffffffffffffffffffffffffffffff1673ffffffffffffffffffffffffffffffffffffffff16815260200190815260200160002081905550610275818373ffffffffffffffffffffffffffffffffffffffff166105ea90919063ffffffff16565b8173ffffffffffffffffffffffffffffffffffffffff167f7084f5476618d8e60b11ef0d7d3f06914655adb8793e28ff7f018d4c76d505d5826040516102bb919061099b565b60405180910390a25050565b6102cf6105e2565b73ffffffffffffffffffffffffffffffffffffffff166102ed61034f565b73ffffffffffffffffffffffffffffffffffffffff1614610343576040517f08c379a000000000000000000000000000000000000000000000000000000000815260040161033a9061097b565b60405180910390fd5b61034d60006106de565b565b60008060009054906101000a900473ffffffffffffffffffffffffffffffffffffffff16905090565b6000600160008373ffffffffffffffffffffffffffffffffffffffff1673ffffffffffffffffffffffffffffffffffffffff168152602001908152602001600020549050919050565b6103c96105e2565b73ffffffffffffffffffffffffffffffffffffffff166103e761034f565b73ffffffffffffffffffffffffffffffffffffffff161461043d576040517f08c379a00000000000000000000000000000000000000000000000000000000081526004016104349061097b565b60405180910390fd5b600073ffffffffffffffffffffffffffffffffffffffff168173ffffffffffffffffffffffffffffffffffffffff1614156104ad576040517f08c379a00000000000000000000000000000000000000000000000000000000081526004016104a49061091b565b60405180910390fd5b6104b6816106de565b50565b6104c16105e2565b73ffffffffffffffffffffffffffffffffffffffff166104df61034f565b73ffffffffffffffffffffffffffffffffffffffff1614610535576040517f08c379a000000000000000000000000000000000000000000000000000000000815260040161052c9061097b565b60405180910390fd5b600034905080600160008473ffffffffffffffffffffffffffffffffffffffff1673ffffffffffffffffffffffffffffffffffffffff168152602001908152602001600020600082825461058991906109d2565b925050819055508173ffffffffffffffffffffffffffffffffffffffff167f2da466a7b24304f47e87fa2e1e5a81b9831ce54fec19055ce277ca2f39ba42c4826040516105d6919061099b565b60405180910390a25050565b600033905090565b8047101561062d576040517f08c379a00000000000000000000000000000000000000000000000000000000081526004016106249061095b565b60405180910390fd5b60008273ffffffffffffffffffffffffffffffffffffffff1682604051610653906108eb565b60006040518083038185875af1925050503d8060008114610690576040519150601f19603f3d011682016040523d82523d6000602084013e610695565b606091505b50509050806106d9576040517f08c379a00000000000000000000000000000000000000000000000000000000081526004016106d09061093b565b60405180910390fd5b505050565b60008060009054906101000a900473ffffffffffffffffffffffffffffffffffffffff169050816000806101000a81548173ffffffffffffffffffffffffffffffffffffffff021916908373ffffffffffffffffffffffffffffffffffffffff1602179055508173ffffffffffffffffffffffffffffffffffffffff168173ffffffffffffffffffffffffffffffffffffffff167f8be0079c531659141344cd1fd0a4f28419497f9722a3daafe3b4186f6b6457e060405160405180910390a35050565b6000813590506107b181610b98565b92915050565b6000813590506107c681610baf565b92915050565b6000602082840312156107de57600080fd5b60006107ec848285016107a2565b91505092915050565b60006020828403121561080757600080fd5b6000610815848285016107b7565b91505092915050565b61082781610a28565b82525050565b600061083a6026836109c1565b915061084582610aa5565b604082019050919050565b600061085d603a836109c1565b915061086882610af4565b604082019050919050565b6000610880601d836109c1565b915061088b82610b43565b602082019050919050565b60006108a36020836109c1565b91506108ae82610b6c565b602082019050919050565b60006108c66000836109b6565b91506108d182610b95565b600082019050919050565b6108e581610a6c565b82525050565b60006108f6826108b9565b9150819050919050565b6000602082019050610915600083018461081e565b92915050565b600060208201905081810360008301526109348161082d565b9050919050565b6000602082019050818103600083015261095481610850565b9050919050565b6000602082019050818103600083015261097481610873565b9050919050565b6000602082019050818103600083015261099481610896565b9050919050565b60006020820190506109b060008301846108dc565b92915050565b600081905092915050565b600082825260208201905092915050565b60006109dd82610a6c565b91506109e883610a6c565b9250827fffffffffffffffffffffffffffffffffffffffffffffffffffffffffffffffff03821115610a1d57610a1c610a76565b5b828201905092915050565b6000610a3382610a4c565b9050919050565b6000610a4582610a4c565b9050919050565b600073ffffffffffffffffffffffffffffffffffffffff82169050919050565b6000819050919050565b7f4e487b7100000000000000000000000000000000000000000000000000000000600052601160045260246000fd5b7f4f776e61626c653a206e6577206f776e657220697320746865207a65726f206160008201527f6464726573730000000000000000000000000000000000000000000000000000602082015250565b7f416464726573733a20756e61626c6520746f2073656e642076616c75652c207260008201527f6563697069656e74206d61792068617665207265766572746564000000000000602082015250565b7f416464726573733a20696e73756666696369656e742062616c616e6365000000600082015250565b7f4f776e61626c653a2063616c6c6572206973206e6f7420746865206f776e6572600082015250565b50565b610ba181610a28565b8114610bac57600080fd5b50565b610bb881610a3a565b8114610bc357600080fd5b5056fea2646970667358221220b2a6db4c00e57e7ef608d5e81a53c60e6688cd2b85172cc39bb6858c6c6988ec64736f6c63430008040033",
  "linkReferences": {},
  "deployedLinkReferences": {}
}